:100000000C9430020C944D020C944D020C944D0251
:100010000C944D020C944D020C944D020C944D0224
:100020000C944D020C944D020C94DC1C0C94AE1DEF
:100030000C9491170C944D020C944D020C944D02AB
:100040000C944D020C944D020C944D020C944D02F4
:100050000C944D020C941A180C944D020C944D0201
:100060000C944D020C944D020C944D020C944D02D4
:100070000C944D020C944D020C944D020C944D02C4
:100080000C944D020C944D020C944D020C944D02B4
:100090000C944D020C944D020C944D020C944D02A4
:1000A0000C944D020C944D020C944D028F048F045D
:1000B000BB04BB04F805F805F805F8051C05840524
:1000C00095059505A511A811DF11F211FA11051278
:1000D000081208120812501250120D1210121512A6
:1000E00022122F12321236124312B1122313B912F6
:1000F00083128712BD128A12C012CB1295121913E5
:100100009912CF129D12D312FD12A112D71207130A
:10011000A712DD12E7128E12C4129112C712AC128E
:10012000E212F312131315137F12B5122C135F167C
:100130006516531659166B1671167716161E3D1E48
:10014000351F3D1E351F891EAC1E351F031F121F94
:100150002B0014001A00080015001700E00004002E
:100160001600070009000A00E3001D001B0006003E
:1001700019000500000000000000E10021522C00E1
:100180001C0018000C00120013002A000B000D00C8
:100190000E000F003300340011001000360037004D
:1001A0003800E5002A002842E600000000000000B8
:1001B00001001E001F00200021002200010091000C
:1001C000500052004F004B00010090004A005100C7
:1001D0004D004E0000000000000001000100010081
:1001E0002300240025002600270029002D002E00D2
:1001F0002F003000310035002D022E022F02300278
:10020000310235024C0023520100000000000000C2
:1002100001001E021F0220022102220201009100A1
:10022000500052004F004B0001000100010001008E
:100230000100010000000000000001002352010045
:10024000230224022502260227022A002D002E0066
:100250002F003000310035002D022E022F02300217
:100260003102350201000100010000000000000021
:1002700001003A003B003C003D003E00010001004F
:100280000100010001000100010001000100010066
:100290000100010000000000000001000100010059
:1002A0003F004000410042004300440001000100C3
:1002B00001000100010045000100010001000100F2
:1002C0000100010001000100010000000000000029
:1002D00000000000000000002A2B280000000000A1
:1002E00000000000000000000000002900000000E5
:1002F0002C1E3420212224342627252E362D373853
:10030000271E1F202122232425263333362E37385B
:100310001F0405060708090A0B0C0D0E0F10111219
:10032000131415161718191A1B1C1D2F3130232DE5
:10033000350405060708090A0B0C0D0E0F101112E3
:10034000131415161718191A1B1C1D2F3130354C94
:10035000000000000000000000000000000000009D
:10036000000000000000000000000000000000008D
:10037000000000007E0F00D4FFFFFFC700000078E0
:1003800012034D00610067006700690065003400DA
:10039000320000001003540061006D006100720023
:1003A0006F00680000000403090409024200020112
:1003B00000A0FA0904000001030101000921110154
:1003C0000001224000070581030800010904010023
:1003D000020300000009211101000122220007058B
:1003E000820320000107050303200001120100021F
:1003F0000000000834120300000101020001066041
:10040000FF0961A1010962150026FF00952075080A
:1004100081020963150026FF00952075089102C02E
:1004200005010906A101050719E029E715002501C5
:10043000950875018102950175088101050719006C
:1004400029FF150026FF009506750881000508198B
:10045000012905950575019102950175039101C06A
:1004600011241FBECFEFDAE0DEBFCDBF11E0A0E068
:10047000B1E0E2E2F0E402C005900D92AC31B107C8
:10048000D9F721E0ACE1B1E001C01D92A93DB2076E
:10049000E1F70E94F9100C940F200C94000084E006
:1004A00008958430B0F46830A0F4463090F490E3BE
:1004B000899FF001112486E0689FE00DF11D112451
:1004C000E40FF11DEE0FFF1FE05BFE4F859194914D
:1004D000089581E090E0089581E0089581E0089515
:1004E0000E946E0208950E94700208950E946E029A
:1004F000089508950E9479020895A6E0B0E0E3E827
:10050000F2E00C947F1F49835A839E83309123012C
:1005100089819A81311115C03E81332359F02223FC
:1005200049F00E948A07182F682F89819A810E94BA
:10053000660703C00E947807182F69817A81812F8E
:1005400004C00E948A0769817A810E94840E2696DF
:10055000E3E00C949B1FFC01262F408151816281B6
:100560007381848195810E947D020895CF93DF93EA
:10057000EC0161E00E94AB02BE010E947302DF91B8
:10058000CF910895CF93DF93EC0160E00E94AB021E
:10059000BE010E947A02DF91CF91089508950E94D2
:1005A00061060E94CE022FEF84E39CE02150804040
:1005B0009040E1F700C0000008950E94CF020E9421
:1005C000401808950E94CF020E94511808950F9379
:1005D0001F93CF93DF938C0161E00E94AB02EC018B
:1005E000B8010E947211882309F450C0B801CE01ED
:1005F0000E947602882309F449C0B801CE010E9406
:100600004716882309F442C0B801CE010E945B124C
:100610008823E1F1B801CE010E94AD158823B1F124
:10062000B801CE010E948A16882381F1F8018581E4
:10063000882341F1C3308CE7D807D1F040F4C115CD
:10064000FCE7DF0791F0C130DC47A1F01BC0CB35E0
:10065000ECE7DE07A9F0CC35FCE7DF0771F0CA351F
:10066000DC4781F40E94FD0B0DC00E94DD020EC02C
:100670000E94050C0E94E20209C00E94F30B02C016
:100680000E94010CC8010E946C0201C080E0DF9151
:10069000CF911F910F9108950E946A170E947303D2
:1006A00008950E9477030E9473170895089581E0CA
:1006B00008950895CF93DF93D82F0E945703C82F32
:1006C000882319F08D2F0E9459038C2FDF91CF9131
:1006D00008950895CF93C82F0E9456038C2F0E942F
:1006E0005A03CF91089580E00E946A0308950E9402
:1006F000DF160E946A030895CF930E94DF16C82F69
:1007000080911E01C81779F0C0931E010E94FF1747
:1007100060931F0170932001809321019093220127
:100720008C2F0E946A03CF910895ADE0B0E0EBE911
:10073000F3E00C94801F488759876A877B878C87F2
:100740009D8791110E94270BCE01019627E0FC01A5
:1007500011922A95E9F726E0FE013896DC01019016
:100760000D922A95E1F72D8121110AC029813A8144
:100770004B815C816D817E818F810E94710A04C0F2
:100780000E94B6028111F2CF2D96E2E00C949C1FDC
:10079000FC012481213021F4808191810E94B707DE
:1007A0000895CF93882369F1C82F8CEF8C0F813A7D
:1007B000D0F46C2F80910001909101010E940317E9
:1007C000882349F06C2F80910001909101010E94D3
:1007D0003C170E94530B6C2F8091000190910101F6
:1007E0000E9439170CC080E28C0F883050F4C7701B
:1007F00081E001C0880FCA95EAF70E940A0B0E94A7
:10080000530BCF9108958823D1F0682F8CEF860F7A
:10081000813A38F480910001909101010E943C17C7
:100820000CC080E2860F883050F4677081E001C010
:10083000880F6A95EAF70E94100B0E94530B0895E7
:100840001F93CF93DF93182FEB010E94D1032097C2
:1008500041F08FE99FE00197F1F700C00000219778
:10086000F6CF812F0E940304DF91CF911F9108954D
:10087000893319F060E070E002C060E570E00E942A
:1008800020040895882321F00E940A0B0E94530B34
:100890000895882321F00E94100B0E94530B0895A5
:1008A000A0E0B0E0E6E5F4E00C947A1F7C01D62FDE
:1008B000C72FFC011581068102950F700E94000B65
:1008C0008823E9F01123D9F08C2F807F803451F0F8
:1008D00080E28D0F883098F0011104C08C2F807E4B
:1008E000803269F08091B70182FF09C082E00E94E6
:1008F000C70B0E94000B91E0D82ED92601C0D12C45
:10090000CC2EC2948FE0C8228C2D90E08C309105C3
:1009100008F06EC1FC01EA5AFF4F0C94631F8C2F44
:10092000807FCF70882311F0C295C07F112399F08A
:10093000CC2309F449C180E28D0F883010F0D11129
:1009400004C08C2F0E940A0B03C08C2F0E941A0B2C
:100950000E94530B39C18D2F0E940304CC2309F44C
:1009600047C180E28D0F883038F1DD2329F18C2FCB
:100970000E94200B24C08C2F807FCF70803211F01A
:10098000C295C07FDD2319F0D13099F13CC0809130
:10099000B70182FD17C0112349F0CC2329F08C2F19
:1009A0000E940A0B0E94530B80E00FC180E00E945E
:1009B0000304CC2309F41CC18C2F0E94100B0E944D
:1009C000530B16C1112349F0002309F1013009F03E
:1009D0000FC18C2F0E94310B0BC1011109C18C2F4B
:1009E0000E9449048C2F0E943D0B8C2F0E949A0B71
:1009F000FFC0112321F0063008F0FAC008C005300E
:100A000008F0F6C015C0112331F00111DDC08C2FA4
:100A10000E944204EDC0002359F0D93309F0E5C02B
:100A2000FFEF27EE83E0F15020408040E1F7DBC08C
:100A30008C2F0E944904DCC08C2F837079F5111132
:100A4000DBC04D2F429546954770440F440F2D2F24
:100A50002F70042E01C0220F0A94EAF7D4FF08C0B9
:100A60008FE090E001C0880F4A95EAF7809501C0B9
:100A700080E0C695C695C370822BC23049F058F409
:100A8000C13019F00E94B806B7C00E94B206B4C0C7
:100A90000E94BE06B1C00E94AF06AEC0112319F07D
:100AA0008C2F817001C08695882309F4A5C04D2F35
:100AB000429546954770440F440F2D2F2F70042EFA
:100AC00001C0220F0A94EAF7D4FF08C08FE090E03B
:100AD00001C0880F4A95EAF7809501C080E0C6956D
:100AE000C695C370822BC23049F058F4C13019F05A
:100AF0000E94040781C00E94FE067EC00E940A0771
:100B00007BC00E94C70678C0CF70112339F08C2FAC
:100B10000E94D9068D2F0E9442046EC08D2F0E9424
:100B200049048C2F0E94E50667C0D23F21F128F4CA
:100B3000D03F41F0D13FC1F043C0D33F19F1D43F82
:100B400079F03EC0112341F0053008F051C08C2FE0
:100B50008F710E94F2064CC0063008F049C0F7CFF2
:100B60008091B70182FD18C0112339F08C2F8F714D
:100B70000E94D9063DC01123C9F38C2F8F710E94AA
:100B8000E50636C0112329F08C2F8F710E94D00604
:100B90002FC00E94CC062CC0112349F0CF718C2F9E
:100BA0000E94D90663E08C2F0E94A90B21C081E02E
:100BB0000E94C70B0230E0F082E00E94C70B18C011
:100BC000112331F0002391F28D2F0E94D10310C028
:100BD000002399F2D93349F49FEFE7EEF3E0915007
:100BE000E040F040E1F700C000008D2F0E940304B8
:100BF00088EF8C0D843020F40E94DF160E946A0377
:100C0000DD2089F00E94FC0A80FD0DC0F7011582ED
:100C10000E94F60A0E94D906C7010E9430060E946F
:100C2000F60A0E94E506CDB7DEB7E8E00C94961F01
:100C30000F931F93CF93DF93EC01688179818D81AE
:100C40000E94C2078C010E9410070E94A206B801F0
:100C5000CE010E945004DF91CF911F910F91089512
:100C6000CF93DF93FC0124812223D1F0EC010E9479
:100C7000E70281110FC00E94000B882389F08D814B
:100C8000882371F08091B70182FF0AC082E00E9440
:100C9000C70B06C0CE010E941806CE010E94C202F8
:100CA000DF91CF9108950E94270B0E94530B089566
:100CB00080910001909101010E943F170E9453060C
:100CC00008950E94170B0E945806089592959F70F0
:100CD000963079F010F4925001C09A50923068F436
:100CE000803F69F018F4883E40F409C0843F29F43D
:100CF00006C0883E20F0813F11F080E0089581E039
:100D00000895FC012481222339F0808191810E9481
:100D1000B7070E946606089580E00895A6E0B0E057
:100D2000E4E9F6E00C94801F2696E2E00C949C1F08
:100D3000A7E0B0E0EEE9F6E00C94801F2796E2E031
:100D40000C949C1F089508950E94A30608950E9484
:100D5000A40608950E94A7068093370108950E9473
:100D6000AA06089590913701892B0E94AA0608953A
:100D70009091370189230E94AA0608959091370126
:100D800089270E94AA0608950E94A30608950E943A
:100D9000C40680933601089580E00E94C706089536
:100DA00091E001C0990F8A95EAF7892F0E94C70642
:100DB000089521E030E001C0220F8A95EAF7809182
:100DC0003601822B0E94C706089521E030E001C061
:100DD000220F8A95EAF720958091360182230E949E
:100DE000C706089521E030E001C0220F8A95EAF796
:100DF0008091360182270E94C7060895909136019E
:100E0000892B0E94C70608959091360189230E947C
:100E1000C70608959091360189270E94C706089554
:100E20000895962F9770A1E001C0AA0F9A95EAF74E
:100E300093E0769567959A95E1F7FB01EE0FFF1F1A
:100E40006E0F7F1FFA01E60FF71F40E050E0682F9A
:100E500070E090819B01042E02C0369527950A947C
:100E6000E2F72170219529272A23292721934F5F13
:100E70005F4F4330510569F708959B01782F7770D4
:100E800043E0969587954A95E1F7FC01EE0FFF1F29
:100E90008E0F9F1FF901E80FF91F40E050E080E03E
:100EA000219130E0072E02C0369527950A94E2F78B
:100EB00021703327042E01C0220F0A94EAF7822BF7
:100EC0004F5F5F4F4330510559F70895282F9830F1
:100ED00070F4863060F4862F622F70E026E0929FD7
:100EE000600D711D112444E251E00E941107089524
:100EF000983070F4863060F4292F90E064E271E05D
:100F000036E0239F800D911D11240E943D07089516
:100F100080E00895CF92DF92FF920F931F93CF93BB
:100F2000DF936C010091360180913701082BC3E0FB
:100F3000D0E010E0C8010C2E02C0959587950A9468
:100F4000E2F780FD04C02197A8F7F12C07C0FC2E22
:100F5000B6018C2F0E94900E0197A9F38F2DDF917F
:100F6000CF911F910F91FF90DF90CF900895CF9375
:100F7000DF93EC010E948A07BE010E94900EDF9170
:100F8000CF9108951F93CF93DF93EB0190912301AD
:100F9000992321F0CB010E94B70713C0882349F0A1
:100FA000CB010E948A07182F682FCE010E94660786
:100FB00004C0CB010E947807182FBE01812F0E9428
:100FC000900EDF91CF911F910895E1E0F0E0DF01F5
:100FD00002C0AA0FBB1F6A95E2F7BD01DF0102C084
:100FE000AA0FBB1F4A95E2F7AD01462B01C0EE0FD9
:100FF0002A95EAF7942F9823491302C08E2B08955F
:10100000E0958E230895242F462F682F8091360176
:101010000E94E5070E94C70608951F93CF93DF93B0
:10102000C091380117E080913901C817A1F0D0E0D4
:101030001C9FF0011D9FF00D1124E65CFE4F2081E6
:101040003181428153816481758186810E94980635
:101050002196C770E8CFDF91CF911F91089520911D
:10106000720130917301409174015091750160914A
:10107000760170917701809178010E949806089519
:10108000CF93DF938091780182958F7009F04EC0E5
:1010900080917701882309F449C0809138014091FB
:1010A00039015091730160917201C0917401D09126
:1010B000750177E08417D1F190E0789FF001799F76
:1010C000F00D1124DF01A65CBE4F14962C911497ED
:1010D000222349F111962C911197251324C02C91AC
:1010E000261321C015962C91159721111CC012961C
:1010F0002D913C9113972C1B3D0B283C310598F406
:10110000809178018F70806180937801E05CFE4F60
:1011100080818F708061808382E791E00E94300639
:101120000E940D0803C001968770C4CFDF91CF9154
:101130000895209138019091390157E02917A9F0BD
:1011400030E0529FF001539FF00D1124E65CFE4FFA
:101150007181761306C07081781303C07581741392
:1011600006C02F5F3F4F2770E9CF80E0089581E0F0
:101170000895A4E1B0E0EFEBF8E00C94761F8C0149
:1011800086E0F801DE011F9601900D928A95E1F745
:10119000D80114968C9114971596EC9092E7A92E8D
:1011A00091E0B92E90917601911118C0882309F42D
:1011B00091C1EE20D9F1C8010E948106F82E882342
:1011C000A9F187E0F801D50101900D928A95E1F728
:1011D000C5010E94C8030E94400877C1F801C08081
:1011E000D18082809380F0907701209174013091BA
:1011F0007501FF2009F405C1A401421B530B483CB3
:10120000510508F0ABC0882309F466C180917801CC
:10121000282F207F90917301222361F09D1509F4FE
:101220006BC0C8010E94810681116FC0C8010E9475
:10123000300650C19D1116C0909172019C1112C0D0
:10124000E11010C08F708061809378010E942F0898
:1012500082E791E00E94300680917801D8011696CD
:101260008C9336C1E1103AC040E06D2D8C2D0E9468
:10127000990840E06D2D8C2D0E949908E82E81116F
:1012800027C1CF86D88A8F8598890E94B707292FD2
:1012900022952F70243020F49F70223028F009C04E
:1012A0002A50223080F014C0992349F0811107C0E0
:1012B00013C0992321F0F8019681907F69F0805E38
:1012C000883030F409C0803F38F0815F833020F0EF
:1012D000C8010E943006EF2CFE2CFEC080917801E0
:1012E00081608093780182E791E00E943006E2E716
:1012F000F1E087E0DF0145C0909172019C1191CF30
:10130000E1108FCFF8018683B0C0EE2009F48ECFB4
:1013100020917801822F82958F7090E002978CF057
:101320008091720190917301998788879B868A8644
:10133000809176018C871D862E87CE0108960E94AB
:10134000300687E0F801A2E7B1E001900D928A959E
:10135000E1F70E9440080E942F08BCC090917801DC
:10136000292F207FA1F4682D9A8A898AA6017A897B
:101370009E2D0E948E0682E791E00E94300687E053
:10138000D5011D928A95E9F70E942F08A1C08823F4
:1013900009F4A2C0809173018D1111C08091720176
:1013A0008C110DC0E1100BC0F8019683C8010E949A
:1013B000300687E0D5011D928A95E9F78DC0C801F6
:1013C0000E948106882309F431CFEE2009F42ECF44
:1013D00020917801822F82958F7090E002970CF413
:1013E000B0CF80917201909173019A8389839C821E
:1013F0008B82809176018D831E822F83CE01019690
:101400009ECFF401E21BF30BE83CF10508F050C05D
:10141000882309F45FC0FE2CEE2009F407CF8091E9
:1014200073018D1137C0809172018C1133C090917E
:10143000780190FD26C0892F82958F70282F30E08B
:1014400021153105F1F0D80116969C9316972F308F
:10145000310559F08F5F982F9295907F16968C9159
:1014600016978F70892B16968C93C8010E943006B0
:1014700087E0F801A2E7B1E001900D928A95E1F7CB
:1014800024C087E0F801A2E7B1E001900D928A95AF
:10149000E1F722C0C8010E948106811152CF8091DC
:1014A0007801816080937801C8010E94300614C0E1
:1014B000682D9A8A898AA6017A899E2D0E948E06B5
:1014C00087E0F50111928A95E9F70E942F0804C080
:1014D000F12C02C0FF24F3948F2D6496ECE00C9461
:1014E000921FAEE0B0E0E7E7FAE00C947F1F288798
:1014F00039874A875B876C877D878E87CE01089600
:101500000E94B908882361F06C856623A9F12885BB
:1015100039854A855B857D858E850E9498062CC01D
:1015200087E0FE013896DE01119601900D928A95B2
:10153000E1F76C85662301F12091390130E0C901A2
:101540000196877099274091380150E084179507DC
:10155000E1F16D8397E0929FD001939FB00D11242C
:10156000A65CBE4FFE01319601900D929A95E1F76F
:10157000809339010E940D0817E080913801909105
:101580003901891779F1189FC0011124865C9E4F9B
:101590000E94B908882331F1E09138011E9FF001C3
:1015A0001124E65CFE4F20813181428153816481A8
:1015B000758186810E9498068091380190E001969D
:1015C0008770992780933801D8CF0E9461061092C6
:1015D000390110923801E2E7F1E087E0DF011D9266
:1015E0008A95E9F72E96E3E00C949B1F8091810188
:1015F00086958695869508958091810187700895D6
:1016000090918101977081E009F480E008958091C4
:101610008D01089590918D01892B80938D010895FE
:10162000809590918D01892380938D01089510926A
:101630008D01089590918C01892B80938C010895E0
:10164000809590918C01892380938C01089510924C
:101650008C01089508950E942A0B08950E942B0B77
:10166000089590918301292F2823821729F0982B20
:10167000909383010E942E0B089590918301292F4E
:10168000282331F080958923809383010E942E0BBB
:10169000089580918301882329F01092830180E0CE
:1016A0000E942E0B0895CF93DF93E0910001F091FB
:1016B000010180918D018083E0910001F091010191
:1016C000908180918C01892B808380918301882374
:1016D00081F0E0910001F09101019081892B8083DC
:1016E00080910001909101010E94F71681110E94E2
:1016F000490BC0910001D091010148E050E069E739
:1017000071E0CE010E94A71F892B59F088E0FE01ED
:10171000A9E7B1E001900D928A95E1F7CE010E9410
:10172000EC16DF91CF9108950E942A0B08950E9434
:10173000940B089590918201292F282331F08095F0
:101740008923809382010E94970B08950E942A0B9F
:1017500008959091B70192FF11C098E0899F900180
:101760001124262B209381010E94D90680918101AA
:101770008695869586950E94A60B08950E94D906A7
:1017800008951092810180E00E94A60B0895909127
:1017900081018095892380938101282F277069F426
:1017A000981759F09091B70192FF07C086958695DA
:1017B00086950E94E5060E94C10B08959091B7019D
:1017C00092FB222720F9281769F080FB92F9909369
:1017D000B7018091B6019091B7010E94270C82E079
:1017E0000E94C70B08958091B70182FB882780F97A
:1017F00091E089270E94DE0B089581E00E94DE0BB4
:10180000089580E00E94DE0B08956FEF7FEF80E087
:1018100090E00E94F91F089580E090E00E94C51FAB
:10182000863E9E4F19F40E940611089580E00895A7
:1018300082E090E00E94BD1F089583E090E00E9446
:10184000BD1F089584E090E00E94C51F0895BC016B
:1018500084E090E00E94F91F0895AB01BC018FE085
:1018600090E00E94ED1F0895AB01BC0183E190E080
:101870000E94ED1F089560E070E0CB010E94340CDF
:10188000089560E070E0CB010E942D0C0E943B0C9B
:101890000895A8E0B0E0EFE4FCE00C94801F66EE51
:1018A0007EEF80E090E00E94F91F60E082E090E02F
:1018B0000E94DB1F60E083E090E00E94DB1F10923B
:1018C000370160E074E184E090E00E94F91F60E07D
:1018D00086E090E00E94DB1F6FEF87E090E00E94BF
:1018E000DB1F40E050E0BA0188E090E00E94ED1F6D
:1018F00060E084E290E00E94DB1F60E087E190E01E
:101900000E94DB1F60E08CE090E00E94DB1F60E043
:101910008DE090E00E94DB1F19821A821B821C82DC
:101920001D821E821F82188648E050E068E170E048
:10193000CE0101960E94CB1F40E050E0BA0180E248
:1019400090E00E94ED1F80E00E941F110E94541140
:101950000E94410C2896E2E00C949C1F0E94490CC6
:101960000895682F8EE090E00E94DB1F0895A6E0A6
:10197000B0E0EDEBFCE00C947E1F0E94F3178C01AD
:1019800080918E0190918F010817190781F01982BB
:101990001A820E94F317682F49815A81792F80E0BB
:1019A00090E00E94950310938F0100938E0126967C
:1019B000E4E00C949A1F0E94FF1760939C017093BF
:1019C0009D0180939E0190939F0160939801709375
:1019D000990180939A0190939B01089581E0089565
:1019E00081E008950E94F00C089508950E94F50C7E
:1019F00008950E94F50C08950E94F90C08950E9424
:101A0000F50C08950E94FF0C08950E94F50C0895AE
:101A100084E79FE00E94D5160E94050D0E94020DEA
:101A200008950E94F60C0E94F50C08950E94930FF1
:101A30000E94690308950E94EA170E9464110E949F
:101A400060100E94160D0E94FC0C0895A6E0B0E004
:101A5000ECE2FDE00C94771F0E94EE0C811103C0B4
:101A60000E94B70C53C00E94761080E9E82E81E0F6
:101A7000F82E670100E0F60111916F01802F0E949E
:101A8000AE0F81270F5F083019F08823A1F302C041
:101A9000882331F38091A00181FD0E94B40F0E9440
:101AA000F20CA82E10E099249394812F0E94AE0F7F
:101AB000B82EF701C080C82609F100E0DD24D394D8
:101AC0008C2D8D21A9F0AA2099F009831A830E94F8
:101AD000F3179C838B839D8291E08B2D8D2109F4DC
:101AE00090E049815A816B817C818D810E949503B0
:101AF0000F5FDD0C063021F7F701B0821F5FFFEFAB
:101B0000EF1AFF0A183089F60E94DB0C0E947C0352
:101B10002696EBE00C94931F1F93CF93DF930E94C4
:101B2000950EEC01C11582E5D807C8F5C11590E501
:101B3000D90708F0BBC0C83ED105C0F4C03ED105EE
:101B400008F0DDC0C53AD10550F4C430D10508F025
:101B5000D6C0219709F0D0C081E090E0D1C0CD3C43
:101B6000D10508F4C9C0CE019065CAC0C11580E492
:101B7000D80708F05AC0C11590E2D90708F0AFC0E5
:101B8000C11581E0D80708F4B7C08D2F0E94310F2E
:101B9000182FCE0199270E94950E1F71ABC0C03837
:101BA00092E5D90720F5C03682E5D80708F061C074
:101BB000C03492E5D90708F04AC0C03282E5D807A0
:101BC000F0F54C2F4695469590E2499FA0011124CF
:101BD000C37021E030E0C90102C0880F991FCA9587
:101BE000E2F7EA01C82BD92BCE019D6889C0C03C21
:101BF00092E5D90768F48C2F8F71C03AD24508F06E
:101C00004CC090E0D82FCC27CE01846F906A78C06A
:101C1000C03E82E5D80708F06FC0CF71DD27DC2F0A
:101C2000CC27CE01806F906A6BC0CE0199270E94AD
:101C3000950ECC27DF70D06A8C2B9D2B61C0CF71A5
:101C4000D0E0DC2FCC27CE01816F906A59C08C2F59
:101C50008F718695869590E2899F90011124C370BB
:101C600081E090E002C0880F991FCA95E2F79C6856
:101C700011C08C2F8F718695869590E2899F900177
:101C80001124C37081E090E002C0880F991FCA95AB
:101C9000E2F79A68822B932B33C00E94310F8F7129
:101CA00090E0D82FCC27CE0190622AC08C2F8F7164
:101CB0000E94310F95E0D695C7959A95E1F7CF70C0
:101CC000D0E0DC2FCC27282F30E084FF05C084E053
:101CD000220F331F8A95E1F7D069CE01DBCF8D2F1C
:101CE0008F710E94310F182FCE0199270E94950EF7
:101CF0001F719062912B04C080E090E001C0CE0182
:101D0000DF91CF911F910895783038F4663028F430
:101D1000462F672F0E94C514089580E090E0089533
:101D20000E94840E0E948C0D08958238910569F1FD
:101D3000B0F48133910509F475C048F489329105F6
:101D400009F467C08A32910509F471C0089585339A
:101D5000910509F459C089339105B9F00895833E7E
:101D6000910589F138F4803E9105D1F0823E9105CC
:101D700029F10895863E9105C9F1873E9105D9F173
:101D8000843E910509F06CC027C02091B60120FD6A
:101D900057C021FD55C02091B70123FD5BC00895B8
:101DA0008091B60180FD48C08091B70180FF48C096
:101DB0008091B60184FD46C083EE51C08091B6018A
:101DC00082FF3CC0F5CF8091B60182FD37C0809183
:101DD000B70180FD35C0ECCF8091B70181FF36C0DF
:101DE0008091B60184FD2EC087EE39C08091B60186
:101DF00083FF2AC0F5CF8091B60183FD25C0809175
:101E0000B70181FD23C0ECCF8091B60185FD22C0D2
:101E10001FC08091B60185FD1BC08091B70183FF73
:101E200019C00AC08091B60186FD16C017C0809106
:101E3000B60186FD13C010C089E311C082EE0FC049
:101E400080EE0DC080E00BC086EE09C084EE07C0B6
:101E500085E305C089E203C08AE201C081E390E026
:101E600008959091B60192FF0DC0282F2871283057
:101E700019F4877F846006C0282F2471243011F460
:101E80008B7F886093FF0DC0282F2871283119F4AB
:101E9000877E846106C0282F2471243111F48B7E43
:101EA00088612091B70120FF0DC0382F387138307C
:101EB00019F4877F816006C0382F3171313011F4F9
:101EC0008E7F886021FF0DC0282F2871283119F4DA
:101ED000877E816106C0282F2171213111F48E7E09
:101EE000886194FD877E089580E008950E94050C26
:101EF00008950E9476102FEF86E791E021508040F0
:101F00009040E1F700C000000E94761080E00E943F
:101F1000AE0F80FF04C00E94760F0E944018089503
:101F20000E94790F08950E940C0C811102C00E943A
:101F3000AE0C0E94180C8093A0010E94220C90937A
:101F4000B7018093B6010E94900F0E941D0C0E9461
:101F5000AF06809136010E94C4060895E82FF0E094
:101F6000E054FE4F80810895089580EA8A95F1F744
:101F7000089500C008950E94B50F089508950E9425
:101F8000BE0F08950E94BF0F08950E94BE0F0895CE
:101F90000E94C50F0895F894E82FE295EF70F0E0E5
:101FA00031A1282F2F7081E090E001C0880F2A9581
:101FB000EAF7982F9095932391A392A1892B82A35E
:101FC000789408950F931F93CF93DF93C4E1D1E0EA
:101FD00089918F3F11F00E94CB0F81E0CC31D8075F
:101FE000B9F7CEE0D1E004E111E089918F3F11F023
:101FF0000E94CB0F0C171D07C1F7DF91CF911F91E6
:102000000F910895A0E0B0E0E8E0F0E10C947A1FB1
:102010008C01C62FD0E0CE018C5E9E4F7C01FC016E
:1020200090819F3F09F447C0D62EF894E92FE2959E
:10203000EF70F0E081A19F7021E030E001C0220F3D
:102040009A95EAF7822B81A382A12095282322A3C7
:1020500078940E94B90FEEE0F1E044E151E031E004
:10206000C12C21912F3F89F0A22FA295AF70B0E033
:1020700090968C9190E02F7002C0959587952A9547
:10208000E2F780FD02C0832F01C080E0C82A330F31
:102090004E175F0731F7F70180818F3F11F00E94E3
:1020A000CB0F61E0C11001C060E08D2D0E94BB0F1D
:1020B000C00FD11FC882CDB7DEB7E8E00C94961FE1
:1020C0000E94E20F88E0E0ECF1E0DF01982F1D9222
:1020D0009A95E9F7E8EBF1E0DF011D928A95E9F7BF
:1020E00088E00E94B1100E94C80F0895A8E0B0E0F7
:1020F000ECE7F0E10C947D1F8E010F5F1F4F88E02D
:10210000F80111928A95E9F7F12C6F2DC8010E9410
:102110000210F394F8E0FF12F8CF48E050E0B80165
:1021200088EB91E00E94A71F21E0009709F420E0CE
:10213000892B41F088E0F801A8EBB1E001900D9205
:102140008A95E1F748E060EC71E088EB91E00E944D
:10215000B210182F0E94C20F812F2896E5E00C9430
:10216000991F0895EF92FF920F931F93CF93DF93E0
:102170007C018B01C42F222349F081E08093A301CD
:102180000E94F3179093A2018093A1018091A30173
:10219000811102C080E01AC08091A1019091A2013A
:1021A0000E940B180597B0F3D0E0AE01B701C8014B
:1021B0000E94A71F892B39F0AE01B701C8010E9408
:1021C000B41F81E001C080E01092A301CDB7DEB75B
:1021D000E6E00C94981F0E94BD190E941B0D0E94FE
:1021E000CA1908950E94CF190E94260D0E94E9196C
:1021F00008950E948A170E94A3190E94080D0E9448
:10220000EB100E94F2100E94110DFBCF85E290E0CE
:102210000E94BD1F833281F486E290E00E94BD1FC0
:10222000863051F487E290E00E94BD1F91E0883132
:1022300009F090E0892F01C080E081700895CF936C
:10224000C82F811102C06FEF01C063E285E290E008
:102250000E94DB1FC11102C06FEF01C066E086E281
:1022600090E00E94DB1FC11102C06FEF01C068E166
:1022700087E290E00E94DB1FCF910895089588E2E5
:1022800090E00E94BD1F682F70E080E090E008950C
:102290000895CF93C62F0E9448116C2F88E290E0DA
:1022A0000E94DB1FCF91089580E00E941F1160E023
:1022B00070E0CB010E9449110E9458140E941A1527
:1022C00081E00E941F1108950E943E110E943F115B
:1022D0000E9448110E940611811102C00E945411EF
:1022E000089508959C01FB018581882351F0A9017F
:1022F00057574038510530F4C9010E942A1580E033
:10230000089581E008952FEFFC01208308950E9435
:102310008311089580E00895A0E0B0E0E2E9F1E1E2
:102320000C94781FEC01F62E0E948A118111BEC018
:10233000E8818E2F90E0FC013197E331F10508F040
:10234000AFC0EE59FF4F0C94631F19828CE06BC035
:102350008981823089F030F4813009F0A1C00E9477
:10236000FF170CC0833079F0843009F099C01A82CD
:102370001B821C821D8296C00E943F119A838B8310
:102380007C836D838FC0EA806E0183E0C80ED11C10
:1023900000E010E0AE2CB12CC501800F911F089712
:1023A00008F080C08E2D800F0E94AE0FF601819341
:1023B0006F010F5F1F4F0C31110571F773C08981D9
:1023C000823039F0853009F06BC08A810E9471112A
:1023D00069C06A817B818C819D810E94691F0E94F6
:1023E000491160C04B816A8189810E941C149C83C1
:1023F0008D8358C02C813D813227232732274B8182
:102400006A8189810E943D144DC00E9458144AC0BF
:102410006F2DCE010E94871145C00E94D11424C0A7
:102420000E94D31499838A833DC06B8170E08981B7
:102430009A81AE014C5F5F4F9827892798270E94A9
:10244000D61430C06B8170E089819A81AE014C5FF7
:102450005F4F9827892798270E94F91423C00E946C
:102460001A1520C00E94091489831CC06B8170E07A
:1024700089819A81AE014C5F5F4F98278927982701
:102480000E9483140FC06B8170E089819A81AE0134
:102490004C5F5F4F9827892798270E94A51402C098
:1024A0008FEF88836F2DCE010E949918CDB7DEB7CC
:1024B000EAE00C94941FCF93DF93FC01DB011596A7
:1024C0008C91882309F4DDC09F01305723323105F8
:1024D00008F0D8C0EF010E94220C9093B7018093BE
:1024E000B601FE01E150F047E232F10520F4EB586D
:1024F000FF4F0C94631F8091B6018160AAC0809148
:10250000B7018860B2C08091B6018260A2C080919C
:10251000B60120C08091B60188609BC08091B70150
:102520001EC08091B7018260A0C08091B601806119
:1025300090C08091B60180628CC08091B6018064A9
:1025400088C00E9461068091B601806882C0809137
:10255000B601886084607DC08091B701826081602F
:1025600084C08091B6018E7F74C08091B701877F4F
:102570007CC08091B6018D7F6CC08091B60120C077
:102580008091B601877F65C08091B7011EC08091A0
:10259000B7018D7F6AC08091B6018F7E5AC080914D
:1025A000B6018F7D56C08091B6018F7B52C00E94CC
:1025B00061068091B6018F774CC08091B601877F0C
:1025C0008B7F47C08091B7018D7F8E7F4EC08091F9
:1025D000B60182FB222720F991E0922790FB82F935
:1025E00090FB83F936C08091B701982F9095917038
:1025F0008E7F892B90FB81F938C08091B60186FBD4
:10260000222720F991E0922790FB86F922C00E94B0
:1026100061068091B60187FB222720F991E092277D
:1026200090FB87F916C081E001C080E00E94B10CE8
:102630001EC08091B60184FB222720F991E09227E9
:1026400090FB84F906C08091B601982F909590FB7D
:1026500080F98093B6010BC08091B70183FB2227DC
:1026600020F991E0922790FB83F98093B701809144
:10267000B6019091B7010E94270C0E94610680E08C
:1026800001C081E0DF91CF910895A0E0B0E0EBE4DC
:10269000F3E10C947B1FE82FF0E0E053FD4FD49062
:1026A000282F26952695269530E0F901E059FC4F14
:1026B0000491877010E0082E02C0159507950A94C2
:1026C000E2F701701127F901E05AFC4FE490F12C78
:1026D000082E02C0F594E7940A94E2F791E0E9220B
:1026E000FF24F901E05BFC4FC491D0E002C0D59516
:1026F000C7958A95E2F7C170DD270115110519F01C
:1027000081EE0E94D103E114F10419F086EE0E94DB
:10271000D1038D2D0E943804E114F10419F086EEE6
:102720000E9403040115110519F081EE0E940304B3
:10273000CD2B19F08CE20E943804CDB7DEB7E7E06C
:102740000C94971FEF92FF920F931F93CF93DF93F9
:10275000EC01162F0AE08881882309F455C08130E6
:1027600009F043C08981813041F47E0182E0E80EA6
:10277000F11C8A810E94380409C0823049F47E012C
:10278000E2E0EE0EF11C8A810E94D103E7012FC026
:10279000833041F47E01F2E0EF0EF11C8A810E9449
:1027A0000304F4CF843011F0219621C02A812296AF
:1027B00080E090E030E0205331092A30310558F4B0
:1027C000089FA001099F500D1124C901840F951F76
:1027D00021962881EFCF009751F0EFE9FFE0319784
:1027E000F1F700C000000197F6CF0E944513219633
:1027F000812F882309F4AFCFEFE9FFE03197F1F79C
:1028000000C000008150F5CFCDB7DEB7E6E00C94F4
:10281000981F84E0089550E0440F551F2CE0629FFC
:10282000400D511D11249A0160E6869F200D311D37
:102830001124C901899608950F931F93CF93DF93B5
:102840008430A0F4683090F4463080F40E940B1479
:102850008C010E94BD1F90E0D82FCC27C8010196A3
:102860000E94BD1F9E01282BC90102C080E090E09C
:10287000DF91CF911F910F9108950F931F93CF93E5
:10288000DF93843080F4683070F4463060F4E901FE
:102890000E940B148C016D2F0E94DB1F6C2FC8014E
:1028A00001960E94DB1FDF91CF911F910F91089538
:1028B0000F931F93CF93DF93C0E0D0E010E000E0D0
:1028C0000E944F0290E0C817D9073CF4402F612FB7
:1028D0008C2F0E9451029C0102C021E030E0402F69
:1028E000612F8C2F0E943D140F5F063049F71F5F48
:1028F000183029F72196C430D10501F7DF91CF9127
:102900001F910F910895EF92FF920F931F93CF9312
:10291000DF93EA017A01E60EF71E8C01C801899661
:10292000CE15DF0569F0003821E0120720F40E947F
:10293000BD1F888301C0188221960F5F1F4FEECF05
:10294000CDB7DEB7E6E00C94981FEF92FF920F939D
:102950001F93CF93DF93EA017A01E60EF71E8C01F5
:10296000C8018996CE15DF0559F0003821E012071D
:1029700018F468810E94DB1F21960F5F1F4FF0CF74
:10298000CDB7DEB7E6E00C94981F843038F4683099
:1029900028F4463018F40E941C14089580E090E05A
:1029A000089580E1089587E592E00895EF92FF92FF
:1029B0000F931F93CF93DF93EA017A01E60EF71E80
:1029C0008C01C80187559E4FCE15DF0569F007358C
:1029D00022E0120720F40E94BD1F888301C01882E4
:1029E00021960F5F1F4FEDCFCDB7DEB7E6E00C9419
:1029F000981FEF92FF920F931F93CF93DF93EA01FB
:102A00007A01E60EF71E8C01C80187559E4FCE1540
:102A1000DF0559F0073522E0120718F468810E949B
:102A2000DB1F21960F5F1F4FEFCFCDB7DEB7E6E07C
:102A30000C94981FCF93DF93C9EAD1E060E0CE01F8
:102A40000E94DB1F2196C11584E0D807B9F7DF91FA
:102A5000CF910895A8E0B0E0E0E3F5E10C94761F93
:102A6000F82E8FE08F1508F474C08FEF93E00E946A
:102A7000BD1F81116EC009EA11E0FF2071F0011540
:102A800094E0190709F465C0C8010E94BD1F8111B7
:102A900001C0FA940F5F1F4FF0CFFE0131966F0116
:102AA00088E011928A95E9F77801FFEFEF1AFF0AA3
:102AB000C8010E94BD1F89831A82882309F449C076
:102AC000813009F040C0580182E0A80EB11CC70156
:102AD0000E94BD1F8A838823E1F19FEF980F9330F6
:102AE00060F4780193E0E90EF11CC5010E94BD1F5E
:102AF0008B83882371F11C8226C0843019F54E0126
:102B0000E3E08E0E911C02E010E07501FFEFEF1A7A
:102B1000FF0AC5010E94BD1FF40181934F01882364
:102B2000C1F08C3741F4E2E0F0E0EC0FFD1FE00F64
:102B3000F11F108208C00F5F1F4F570107301105AA
:102B400021F707C0750160E0C6010E94A21387014A
:102B5000ABCF2896ECE00C94921FCF93DF93863195
:102B60009C4741F5EB010E94070B982F8D81209126
:102B7000000130910101882379F09A7A81E009F40B
:102B800080E08093A401911102C069E201C065E375
:102B9000C9010E9439170AC08091A401811102C0A5
:102BA00069E201C065E3C9010E943C170E94530B12
:102BB00080E001C081E0DF91CF9108950F931F93D2
:102BC000CF93DF93C42FD22FFC0185818823B1F0EE
:102BD0004093A7010E94F3179093A6018093A5014B
:102BE00080E28C0F883008F04DC0C77081E001C0D2
:102BF000880FCA95EAF70E94420444C08091A70159
:102C0000481330C08091A5019091A6010E940B1835
:102C1000883C910538F510E21D0FCD17B9F080E220
:102C20008C0F883040F4C77081E001C0880FCA95CE
:102C3000EAF70E944904183010F581E09D2F977043
:102C400001C0880F9A95EAF70E944204802F0E94E3
:102C500038041830B8F4D77081E001C0880FDA95D5
:102C6000EAF70AC080E28C0F883060F4C77081E018
:102C700001C0880FCA95EAF70E94490403C0802F5B
:102C80000E943804DF91CF911F910F9108950F9307
:102C9000FC01E851FC47E730F10590F5CB01E9561E
:102CA000FF4F0C94631F06E221EE41EE6AE17CE7E0
:102CB00023C007E225EE45EE6BE17CE71DC006E28E
:102CC00021EE40EE68E17CE717C007E225EE44EE16
:102CD00069E17CE711C006E221EE42EE6CE17CE79F
:102CE0000BC007E225EE46EE6DE17CE705C008E289
:102CF00021E045EE6EE17CE70E94DE1580E008C031
:102D0000FB018581882319F01092A70101C081E0A1
:102D10000F9108951F93CF93DF9387372CE7920786
:102D200021F088379C4759F031C0FB01C581CC2385
:102D300019F00E94CC1609C00E94CC1618C0FB01E5
:102D4000C581CC2391F00E94CF160E94D9060E9423
:102D5000D216D82F0E94CF16C82F0E94CC164D2F06
:102D60006C2F0E940308C0E012C00E94CF160E9480
:102D7000E5060E94D216182F0E94CF16D82F0E9467
:102D8000CC16412F6D2F0E94030801C0C1E08C2F8B
:102D9000DF91CF911F910895809104010895809152
:102DA0000301089580910201089590931D0180937D
:102DB0001C0108959093A9018093A8010895E091C2
:102DC000A801F091A901309729F00190F081E02D40
:102DD0000995089580E00895E091A801F091A90176
:102DE000309721F00280F381E02D09950895FC01D0
:102DF000329697E080E0915029F021912223D9F377
:102E00008F5FF9CF0895662349F0FC01329608964A
:102E10002191621729F0E817F907D1F780E00895AA
:102E200081E008959C01FC0132969FEF80E0419182
:102E3000461789F09F3F19F4411101C0982F8F5F09
:102E40008630A9F79F3F39F0F901E90FF11D97FD91
:102E5000FA956283089508959C012A5F3F4FFC0113
:102E60004281461301C01282019682179307B9F777
:102E700008950E94121708950E942C170895029633
:102E800026E0FC0111922A95E9F7089508950E9421
:102E90004617089583E08093AA010E94471708957A
:102EA000811102C081E001C082E08093AA010E94EA
:102EB000471708950E945017089581E08093AA0152
:102EC0000E94471708950E945D17089508950E9473
:102ED000661708950E94671708950E94661708955F
:102EE0000E94661708950E9466170895CF930E9466
:102EF00070170E9476100E946D17C0E08C2F0E9400
:102F0000AE0F811104C0CF5FC830C1F701C081E0AE
:102F1000CF91089585B7806885BF85B7806885BFE4
:102F200008951F920F920FB60F9211248F939F93C3
:102F3000AF93BF938091AB01811113C08091C80101
:102F40009091C901A091CA01B091CB014196A11DF8
:102F5000B11D8093C8019093C901A093CA01B09399
:102F6000CB01BF91AF919F918F910F900FBE0F90AA
:102F70001F9018958091D001843031F10E944C034C
:102F80001092AB0120E488E190E00FB6F894A89588
:102F9000809360000FBE2093600083B7817F8460C0
:102FA00083BF83B7816083BF7894889583B78E7F12
:102FB00083BF0FB6F894A8958091600088618093D4
:102FC0006000109260000FBE08950E9461060E948A
:102FD0005103089582E084BD93E095BD9AEF97BDBB
:102FE00080936E0008952FB7F8948091C801909156
:102FF000C901A091CA01B091CB012FBF08952FB78D
:10300000F8946091C8017091C9018091CA019091B2
:10301000CB012FBF08959C014FB7F8948091C80150
:103020009091C901A091CA01B091CB014FBF821B01
:10303000930B089578941F920F920FB60F9211245C
:103040008F939F93AF93BF938091C8019091C901D3
:10305000A091CA01B091CB010196A11DB11D809331
:10306000C8019093C901A093CA01B093CB01BF914D
:10307000AF919F918F910F900FBE0F901F90189559
:1030800087E797E790930108809300089AE088E12A
:103090000FB6F894A895809360000FBE90936000DF
:1030A000FFCF9AE088E10FB6F894A895809360006E
:1030B0000FBE90936000FFCF8091B40108950895F2
:1030C00008959B019091D0019430F1F48F7080931A
:1030D000E9008FEF9091E800815095FD06C095EDD5
:1030E0009A95F1F700008111F5CF8091E80085FFF6
:1030F0000BC0BA01C90140E050E00E94901A8091D3
:10310000E8008E778093E8000895CF93DF93EC0179
:1031100048E050E0BC0181E00E94611888E0FE01B7
:10312000ACEAB1E001900D928A95E1F7DF91CF9181
:103130000895603231F4BC0140E250E082E00E9428
:10314000611808958091CF01811109C00E94601C0F
:103150000E94BD1C8091E20084608093E20008958B
:103160001092CF0108950E94631708956091CC01D9
:1031700081E0611101C080E00E944A17089590919A
:10318000D00181E0943009F080E06091CC010E9490
:103190005017089542E061EC81E00E94D91B42E2A1
:1031A00061EC82E00E94D91B42E260EC83E00E9465
:1031B000D91B9091D00181E0943009F080E06091BA
:1031C000CC010E945A1708958091D201833009F4EE
:1031D00061C030F4813071F0823009F49BC00895F1
:1031E0008A3009F487C08B3009F46CC0893009F04B
:1031F000A9C020C08091D101813A09F0A3C080917B
:10320000E800877F8093E8008091D5019091D601F6
:10321000892B21F468E08CEA91E003C060E080E053
:1032200090E070E00E941A1B8091E8008B778093F9
:10323000E80008958091D101813209F083C0809126
:10324000D5019091D601892B09F07CC08091E800CE
:10325000877F8093E8008091E80082FD05C080911F
:10326000D0018111F8CF6EC02091F3008091F2005F
:1032700090E0922B029731F48091F100813011F0AF
:10328000863021F48091F1008093B4018091E800B0
:103290008B7754C08091D101813A09F053C080915D
:1032A000D5019091D601892B09F04CC08091E8009E
:1032B000877F8093E8008091E80080FFFCCF8091B9
:1032C0000D0137C08091D1018132E1F58091D501A6
:1032D0009091D601892BB1F58091E800877F80938A
:1032E000E8000E940E1C8091D30180930D010E9482
:1032F000610608958091D101813221F58091E80025
:10330000877F8093E8000E940E1C8091D4018093F7
:10331000B50108958091D101813AA1F48091E8002E
:10332000877F8093E8008091E80080FFFCCF809148
:10333000B5018093F1008091E8008E778093E800DA
:103340000E940E1C089584B7877F84BF0FB6F8943F
:10335000A895809160008861809360001092600061
:103360000FBE90E080E80FB6F894809361009093D0
:1033700061000FBE0E945D1708950E94601C0E94AC
:10338000BD1CE2EEF0E080818460808378940E942E
:10339000481F089585E091E00E94DA160895809113
:1033A000D0018530A9F48091D001853079F40E9454
:1033B000BA178091CE018823B1F30E947617882333
:1033C00091F30E947A1A0E946106EDCF0E94E517E0
:1033D0000895A0E2B0E0EFEEF9E10C94801F809137
:1033E000D001843011F583E08093E9008091E800FA
:1033F00082FF1BC08091E80085FF0AC040E050E0DA
:1034000060E270E0CE0101960E94D51A91E001C001
:1034100090E08091E8008B778093E800992329F071
:1034200060E2CE0101960E948C11A096E2E00C941D
:103430009C1F9A014091D7015091D8010E94211AF6
:103440000895492F552743305105C9F060F44130A4
:10345000510581F04230510509F044C082E490E00A
:103460004AEA53E043C041325105E1F0423251058E
:1034700049F138C082E190E04CEE53E037C0992723
:103480008130910549F028F0029761F5E0E8F3E01A
:1034900005C0E6EAF3E002C0E4E9F3E0849190E0DD
:1034A000AF0124C06115710541F061307105D1F49F
:1034B00089E090E045ED53E019C089E090E04CEBE5
:1034C00053E014C06115710541F06130710551F48C
:1034D00082E290E04EEF53E009C080E490E040E2E9
:1034E00054E004C080E090E040E050E0F9015183F6
:1034F0004083089580E189BD82E189BD09B400FE61
:10350000FDCF8091D8008F7D8093D8008091E0001E
:1035100082608093E0008091E00081FDFCCF0895FF
:10352000A0E0B0E0E6E9FAE10C947A1FEC018B012F
:103530007A010E942D1C811133C0E114F10439F08D
:10354000F70180819181081B190BC80FD91FC12C6D
:10355000D12C0115110519F18091E80085FD16C0E7
:103560008091E8008E778093E800E114F10449F03F
:10357000F70180819181C80ED91ED182C08285E079
:103580000FC00E942D1C882321F30AC089918093CB
:10359000F10001501109FFEFCF1ADF0ADACF80E006
:1035A000CDB7DEB7E8E00C94961FA0E0B0E0EBEDFD
:1035B000FAE10C947A1FEC018B017A010E942D1C18
:1035C000811133C0E114F10439F0F7018081918158
:1035D000081B190BC80FD91FC12CD12C01151105BF
:1035E00019F18091E80085FD16C08091E8008B7785
:1035F0008093E800E114F10449F0F70180819181A2
:10360000C80ED91ED182C08285E00FC00E942D1C39
:10361000882321F30AC08091F10089930150110998
:10362000FFEFCF1ADF0ADACF80E0CDB7DEB7E8E0F0
:103630000C94961F2091D7013091D8012617370797
:1036400048F06115710539F42091E8002E77209338
:10365000E80001C0B901FC0120E06115710579F1B4
:103660008091D0018823F1F18530F1F18091E8005B
:1036700083FD3CC08091E80082FD2EC08091E8006F
:1036800080FFEBCF2091F3008091F20090E0922B2D
:103690006115710551F08830910538F4219120931E
:1036A000F100615071090196F3CF21E0089709F00C
:1036B00020E08091E8008E778093E800CECF211142
:1036C000CFCF0AC08091D001882361F0853061F0AE
:1036D0008091E80083FD0AC08091E80082FFF2CF6C
:1036E00080E0089582E0089583E0089581E00895E0
:1036F0002091D7013091D8012617370748F061157E
:10370000710539F42091E8002E772093E80001C07C
:10371000B901FC0120E06115710591F18091D001A2
:10372000882309F440C0853009F43FC08091E80047
:1037300083FD3DC08091E80082FD2FC08091E800AC
:1037400080FFE9CF2091F3008091F20090E0922B6E
:103750006115710559F08830910540F4249120934A
:10376000F1003196615071090196F2CF21E008977E
:1037700009F020E08091E8008E778093E800CBCFBD
:103780002111CCCF0AC08091D001882361F085300F
:1037900061F08091E80083FD0AC08091E80082FF1B
:1037A000F2CF80E0089582E0089583E0089581E0FB
:1037B0000895982F973068F59093E900981739F09D
:1037C0007091EC002091ED005091F00003C0242F87
:1037D000762F50E021FD02C09F5FECCF3091EB00CF
:1037E0003E7F3093EB003091ED003D7F3093ED0054
:1037F0003091EB0031603093EB007093EC0020933C
:10380000ED005093F0002091EE0027FDE5CF80E021
:1038100008958F708093E90081E008958091D1012F
:1038200087FF11C08091E80082FD05C08091D00122
:103830008111F8CF11C08091E8008B770BC0809187
:10384000D001882349F08091E80080FFF8CF809173
:10385000E8008E778093E80008952091E40030918D
:10386000E50095E64091EC00842F817040FF23C075
:103870008091E80080FD1DC08091D001882399F0DF
:10388000853099F08091EB0085FD11C04091E400F6
:103890005091E5002417350729F3915011F09A0152
:1038A000E1CF84E0089582E0089583E0089581E007
:1038B000089580E008954091E80042FFDDCF08952B
:1038C0000E94CF1C0E94D71CE0EEF0E08081816056
:1038D0008083E8EDF0E080818F77808319BCA7EDCD
:1038E000B0E08C918E7F8C9380818F7E808310924C
:1038F000CF0108950F931F93CF93DF930E94CF1CA6
:103900000E94D71CC8EDD0E088818F77888388819A
:103910008068888388818F7D888319BC1092D0014C
:103920001092CC011092CE011092CD0100EE10E069
:10393000F80180818B7F808388818160888342E069
:1039400060E080E00E94D91BE1EEF0E080818E7F94
:103950008083E2EEF0E080818160808380818860F6
:103960008083F80180818E7F808388818061888355
:10397000DF91CF911F910F910895E8EDF0E08081E4
:103980008F7E8083E7EDF0E080818160808384E03A
:1039900082BF81E08093CF010E947A1C0895E8EDF8
:1039A000F0E080818E7F80831092E2000895109273
:1039B000DA001092E10008951F920F920FB60F9255
:1039C00011242F933F934F935F936F937F938F9324
:1039D0009F93AF93BF93EF93FF938091E10082FF9A
:1039E0000BC08091E20082FF07C08091E1008B7FD5
:1039F0008093E1000E94471F8091DA0080FF1FC082
:103A00008091D80080FF1BC08091DA008E7F809368
:103A1000DA008091D90080FF0DC080E189BD82E18C
:103A200089BD09B400FEFDCF81E08093D0010E94E2
:103A3000A21805C019BC1092D0010E94B018809144
:103A4000E10080FF19C08091E20080FF15C08091E5
:103A5000E2008E7F8093E2008091E200806180939B
:103A6000E2008091D80080628093D80019BC85E084
:103A70008093D0010E94B6188091E10084FF30C08D
:103A80008091E20084FF2CC080E189BD82E189BD84
:103A900009B400FEFDCF8091D8008F7D8093D800BF
:103AA0008091E1008F7E8093E1008091E2008F7E23
:103AB0008093E2008091E20081608093E200809137
:103AC000CC01882311F084E007C08091E30087FDDA
:103AD00002C081E001C083E08093D0010E94BF1842
:103AE0008091E10083FF29C08091E20083FF25C01F
:103AF0008091E100877F8093E10082E08093D00194
:103B00001092CC018091E1008E7F8093E100809142
:103B1000E2008E7F8093E2008091E20080618093DA
:103B2000E20042E060E080E00E94D91B8091F0005A
:103B300088608093F0000E94B318FF91EF91BF91CD
:103B4000AF919F918F917F916F915F914F913F9135
:103B50002F910F900FBE0F901F9018951F920F92EC
:103B60000FB60F9211242F933F934F935F936F9350
:103B70007F938F939F93AF93BF93CF93DF93EF93F5
:103B8000FF93C091E900CF708091EC00D82FD170E5
:103B900080FDD0E81092E9008091F000877F80934B
:103BA000F00078940E94F21D1092E9008091F000DC
:103BB00088608093F000CD2BCF70C093E900FF9117
:103BC000EF91DF91CF91BF91AF919F918F917F91B5
:103BD0006F915F914F913F912F910F900FBE0F907A
:103BE0001F901895AAE2B0E0E8EFFDE10C947F1F6A
:103BF000E1EDF1E08091F100819321E0E93DF207F0
:103C0000C9F70E94E4188091E80083FF2EC18091DB
:103C1000D1019091D201492F50E04A30510508F06E
:103C200024C1FA01E256FF4F0C94631F803821F043
:103C3000823809F01AC108C08091CD019091CE015F
:103C4000992389F082600FC08091D5018F708730F1
:103C500008F00BC18093E9008091EB0085FB882779
:103C600080F91092E9009091E800977F9093E80026
:103C70008093F1001092F100D1C0282F2D7F09F020
:103C8000F4C0882319F0823061F0EFC08091D30135
:103C9000813009F0EAC0933009F080E08093CE01D2
:103CA0002EC08091D30181112AC08091D5018F70DF
:103CB0002FEF280F263008F0D8C08093E90020911C
:103CC000EB0020FF1CC0933021F48091EB00806258
:103CD00014C09091EB0090619093EB0021E030E0F4
:103CE000A90102C0440F551F8A95E2F74093EA00EC
:103CF0001092EA008091EB0088608093EB001092B4
:103D0000E9008091E800877F8093E8000E940E1C04
:103D1000ACC08111AAC01091D3011F778091E3003C
:103D20008078812B8093E3008091E800877F8093E7
:103D3000E8000E940E1C8091E80080FFFCCF80917B
:103D4000E30080688093E300111102C082E001C0AB
:103D500083E08093D00189C08058823008F085C00C
:103D60008091D3019091D4018C3D53E0950779F572
:103D700083E08A838AE289834FB7F894DE01139641
:103D800020E03EE051E2E32FF0E050935700E49151
:103D900020FF03C0E295EF703F5FEF708E2F90E041
:103DA000EA3010F0C79601C0C0968D939D932F5FA7
:103DB000243149F74FBF8091E800877F8093E80066
:103DC0006AE270E0CE0101960E941A1B16C0609153
:103DD000D5017091D601AE014F5F5F4F0E94191A55
:103DE000BC01892B09F441C09091E800977F909322
:103DF000E80089819A810E94781B8091E8008B7786
:103E00008093E80032C0803881F58091E800877F98
:103E10008093E8008091CC018093F1008091E800CC
:103E20008E7772CF811121C08091D3019091D401FE
:103E300099270297D4F48091E800877F8093E80067
:103E40008091D3018093CC010E940E1C8091CC0103
:103E5000811106C08091E30087FD02C081E001C0AE
:103E600084E08093D0010E94CA188091E80083FF0B
:103E70000AC08091E800877F8093E8008091EB0082
:103E800080628093EB00AA96E3E00C949B1F089558
:103E9000CF938091D0018823A1F0C091E900CF7029
:103EA0009091EC00892F817090FD80E8C82B1092D2
:103EB000E9008091E80083FD0E94F21DCF70C0935D
:103EC000E900CF910895EE0FFF1F0590F491E02DCA
:103ED00009946927962769277827872778270895DF
:103EE0002F923F924F925F926F927F928F929F920A
:103EF000AF92BF92CF92DF92EF92FF920F931F93F8
:103F0000CF93DF93CDB7DEB7CA1BDB0B0FB6F894A8
:103F1000DEBF0FBECDBF09942A88398848885F84E8
:103F20006E847D848C849B84AA84B984C884DF8059
:103F3000EE80FD800C811B81AA81B981CE0FD11D3D
:103F40000FB6F894DEBF0FBECDBFED010895FB01A3
:103F5000DC0104C08D910190801921F44150504042
:103F6000C8F7881B990B0895FB01DC0102C0019082
:103F70000D9241505040D8F70895F999FECF92BD67
:103F800081BDF89A992780B50895A8E1B0E042E094
:103F900050E00C940120DC01A40FB51F41505040AB
:103FA00048F0CB01840F951F2E910E94DC1F4150D9
:103FB0005040D0F70895262FF999FECF92BD81BDCC
:103FC000F89A019700B4021639F01FBA20BD0FB657
:103FD000F894FA9AF99A0FBE08950396272F0E9433
:103FE000DC1F0E94DB1F252F0E94DC1F242F0C9456
:103FF000DC1F0196272F0E94DC1F0C94DB1FDC01C5
:10400000CB01FC01F999FECF06C0F2BDE1BDF89AE3
:10401000319600B40D9241505040B8F70895F8948D
:02402000FFCFD0
:1040220084010302015C1885185F18601801F4F519
:0C403200F6F731339190946697C6343550
:00000001FF
