:100000000C94EA020C9407030C9407030C94070366
:100010000C9407030C9407030C9407030C94070338
:100020000C9407030C9407030C941B180C945D1795
:100030000C9483190C9407030C9407030C94070386
:100040000C9407030C9407030C9407030C94070308
:100050000C9407030C9436190C9407030C940703B3
:100060000C9407030C9407030C9407030C940703E8
:100070000C9407030C9407030C9407030C940703D8
:100080000C9407030C9407030C9407030C940703C8
:100090000C9407030C9407030C9407030C940703B8
:1000A0000C9407030C9407030C9407039B0A9B0A08
:1000B000CB0ACB0A9F0C9F0C9F0C9F0C700BE30B81
:1000C000F60BF60B53116A11711181138113AA11EA
:1000D000BC11CF11121217124312661299129C1200
:1000E000A812B412CB1202131F1344135A136A1529
:1000F00091153B1791153B17D915FC153B17F716B2
:100100000B17FD377A585A000004E6D6B4460200B1
:10011000210116000000742FE5A3E002AD00D35DBD
:10012000003D888986D3DC0AE842C32492584258AD
:100130008FD8E75CA0D2616E26E888019A676C7858
:1001400087BC8D3709EA511D70D2DBC0939E431ADC
:10015000CA82F753BA0C053629D1A41AC90AD61C8B
:100160008F57D3F5793AE3BC4A043A21F39FA8E1CB
:10017000BB0A4CA64912CDB7751250EABE01040362
:100180003AAA68E78C324224122D9252AFD571B050
:10019000B6962B7A97848C85895F68B34EF8A03920
:1001A000E1047BF7862A40E96A7C8338E373F67CB6
:1001B0008A86A1219A97019B8A14799721E9D9A56A
:1001C0009892042903ABBC5393B5E866B8F037BCEA
:1001D00043DBF43AB2CB749876902154288F0E49C1
:1001E00088EC94C4567E7D3A513AA1EF5EF9E73C23
:1001F000D3973F0000008C5B9D79EF0FEAFF000171
:10020000EF01AE050000E7F858B2B1C467FB020089
:1002100000000004595A0660FF0961A10109621536
:100220000026FF009520750881020963150026FF4E
:1002300000952075089102C005010906A101050776
:1002400019E029E71500250195087501810295013E
:10025000750881010507190029FF150026FF009583
:100260000675088100050819012905950575019194
:1002700002950175039101C009024200020100A02C
:10028000FA09040000010301010009211101000124
:100290002240000705810308000109040100020350
:1002A000000000092111010001222200070582033C
:1002B00020000107050303200001120100020000D5
:1002C0000008341203000001010203011C03760040
:1002D000690061006C003A0066003600340063007B
:1002E0003200620033006300000012034D00610021
:1002F00067006700690065003400320000001003E9
:10030000540061006D00610072006F006800000021
:10031000040309042B0014001A000800150017003C
:10032000E00004001600070009000A00E3001D00B9
:100330001B00060019000500000000000000E1009D
:1003400001512C001C0018000C00120013002A00A0
:100350000B000D000E000F003300340011001000E0
:10036000360037003800E5002A002842E600000089
:100370000000000001001E001F00200021002200DC
:1003800001009100500052004F004B00010090000E
:100390004A0051004D004E00000000000000010026
:1003A0000100010023002400250026002700290069
:1003B0002D002E002F003000310035002D022E02BE
:1003C0002F023002310235024C00035101000000BF
:1003D0000000000001001E021F0220022102220272
:1003E00001009100500052004F004B00010001003D
:1003F00001000100010001000000000000000100F8
:1004000003510100230224022502260227022A00AA
:100410002D002E002F003000310035002D022E025D
:100420002F023002310235020100010001000000FC
:100430000000000001003A003B003C003D003E008F
:1004400001000100010001000100010001000100A4
:100450000100010001000100000000000000010097
:10046000010001003F004000410042004300440001
:100470000100010001000100010045000100010030
:100480000100010001000100010001000100000065
:100490000000000001000100D8015A1F8D1F00005C
:1004A00002000200D4015A1F8D1F0000030001004A
:1004B000D9015A1F8D1F000004000200BE015A1FFF
:1004C0008D1FD31E05000100DA015A1F8D1F000089
:1004D00006000200C0015A1F8D1F00000700020025
:1004E000D6015A1F8D1F000008000100DB015A1FB2
:1004F0008D1F000012000200DC015A1F8D1F00003A
:1005000013000200DE015A1F8D1F000014000100BD
:10051000E0015A1F8D1F0000150000000000561E4C
:10052000DC1E0000000000000000000000000000D1
:1005300000000000000000000000000000000000BB
:1005400000000000000000007E0F00D4FFFFFFC786
:100550000000007800000000000000002A2B2800A6
:100560000000000000000000000000000000002962
:10057000000000002C1E3420212224342627252EA2
:10058000362D3738271E1F202122232425263333DA
:10059000362E37381F0405060708090A0B0C0D0E06
:1005A0000F101112131415161718191A1B1C1D2FD2
:1005B0003130232D350405060708090A0B0C0D0EF2
:1005C0000F101112131415161718191A1B1C1D2FB2
:1005D0003130354C11241FBECFEFDAE0DEBFCDBF86
:1005E00011E0A0E0B1E0E0ECF1E602C005900D9270
:1005F000A832B107D9F724E0A8E2B1E001C01D920A
:10060000A236B207E1F70E94F40C0C94DE300C9491
:100610000000ACE0B0E0EFE0F3E00C948A307C0145
:10062000DC0113964D915C91149711966C91119782
:100630008C910E943C2181110C94F00C61E0C70167
:100640000E945B298C01F70182818823E1F080916F
:10065000A5029091A6020097B1F00817190799F02A
:10066000FEE08F9FC0011124FC01E65EFC4F20815B
:10067000246020838B5E9C4FDC010D931C930E94B1
:10068000C21F1092A402F7013280332009F486C6FB
:10069000C80182519F45409708F0B3C08FEF93E0A7
:1006A0000E943330811167C66EEED62ED00E0BEB52
:1006B00012E0DD2071F00115F4E01F0709F45BC6BC
:1006C000C8010E943330811101C0DA940F5F1F4FBF
:1006D000F0CF19821A821B821C82AA24AA94680174
:1006E0002FEFC21AD20AC8010E94333089831A82BE
:1006F000882309F440C6813009F07EC0480132E009
:10070000830E911CC6010E943330B82E8A83882341
:1007100009F431C68FEF8B0D833060F4680143E03C
:10072000C40ED11CC4010E9433308B83811164C07C
:100730008601D5CF8BEF8B0D833078F5380153E0F0
:10074000650E711CC4010E9433308B83811102C07D
:100750006301EECF680184E0C80ED11CC3010E9482
:1007600033308C83882321F32B813C8121309FEF10
:10077000390718F0922F80E001C0C901A6E0BA162F
:1007800031F0B7E0BB1631F00E94032ED1CF0E94AA
:10079000DD2DCECF0E94632DCBCFE4E0BE1611F04D
:1007A0006401C6CFC4010E943330B82E6801F4E062
:1007B000CF0ED11CC80103960E943330BB2009F430
:1007C000DAC5882309F4D7C5282F30E02150310934
:1007D000A29EA001A39E500D11248B2D90E00197A5
:1007E000840F951F019708F4A3CFAFE9BFE01197DD
:1007F000F1F700C00000F6CFCE0101960E941E2F37
:1008000097CF0031EFE51E0731F00131FFE51F07FB
:10081000B1F482E001C081E00E94991A0E94122F77
:10082000AAC5680127E5D21A3FEFC316D10409F023
:1008300008F4C3C5D70112963C903320D1F00F3590
:10084000BDE51B0761F00036EDE51E0761F00E35D2
:10085000FDE51F0771F480910001811104C081E062
:100860008093000188C51092000180E00E94AD20B5
:1008700082C580910001811108C0C80197558F3F42
:10088000910509F008F47AC1CAC1480120EE821A24
:1008900091082090FE0280912D01282A80919D01CF
:1008A000282A38E08316910480F4980127703327B2
:1008B00081E090E001C0880F2A95EAF7332011F01B
:1008C000282A18C08095282215C0332009F416C1A3
:1008D00010932B0100932A010E946B1960939602DA
:1008E00070939702809398029093990210929E02BF
:1008F00010929D02D7018D919C910E941C1A21E0BB
:1009000030E0F90102C0EE0FFF1F8A95E2F7FC8785
:10091000EB8720919F023091A00238872F8340916E
:100920002A0150912B015A8749871D82432C512C53
:100930005D81E52FF0E0EE0FFF1FEA52FC4FC08013
:10094000D180C114D10409F4F0C0211005C0D60132
:1009500012968C918111CEC0F601838190E02B8597
:100960003C8582239323892B09F4C4C08085982F6A
:10097000977009F487E038E08316910440F433203F
:1009800019F081FD09C0B6C082FD06C0B3C0332096
:1009900009F4B0C080FFAEC0D601AD90BC900A157E
:1009A0001B0519F4332009F4A5C0EF81F885CE1694
:1009B000DF0609F49FC0D6011D96ED91FC911E97AC
:1009C000309721F08081882309F494C0622DC601FC
:1009D0000E941C21882309F48DC00A151B0511F4FF
:1009E000320102C0612C712CB62DB170BE8381E042
:1009F000A114B10441F0B11106C0E985FA85AE1623
:100A0000BF0609F080E080FF75C080E00E94AD2045
:100A1000D092A002C0929F0281E080939C02D601F6
:100A200015968C9180939A02BE81B11113C0AB28A8
:100A300089F0F601808191819C0124503109213A8D
:100A4000310530F4682F8DE891E00E94AC1902C0A6
:100A50000E94F41AD6011696AD90BC901797C50166
:100A60009A9581159F4110F4E0EEBE2255245394CF
:100A7000C5010197803B9D4508F0512CD601199680
:100A8000ED91FC911A97309739F01B966D917C91FE
:100A90001C9781E009955822552029F1F60186819D
:100AA00097810E94BF2B80939B02C501F8E08F16AF
:100AB000910418F40E945C2016C00497813A9105B5
:100AC00030F46A2D8DE891E00E94B9190EC00E94A1
:100AD00052288FE39CE90197F1F700C000008A2DAE
:100AE0000E94421B02C00E94522891E0692660FECB
:100AF00073C1C3CEAD81AF5FAD831ACF80912A01A0
:100B000090912B010817190781F410922B01109274
:100B10002A01109296021092970210929802109257
:100B2000990210929E0210929D0280919F029091D4
:100B3000A002009709F4A1CEB8E08B16910438F416
:100B4000622D0E941C21811198CE81E014C0FC010D
:100B5000208131810217130729F4311006C0109249
:100B60009C0208C0332009F488CEDC0118968C91D1
:100B700085FD83CE80E00E94AD207FCE5801BB244E
:100B8000BEE00B9FF00111249F012B5E3C4F6901D9
:100B9000D70112969C911297E65EFC4F808190FBE4
:100BA00080F9808312969C919923A1F10E94771974
:100BB0009093440180934301F60182818F5F828389
:100BC0009091A40280919D01892B83838091FE02E4
:100BD00084830680F781E02D309739F0D6011C968A
:100BE0006D917C911D97C60109958EE08A9DF0015B
:100BF0008B9DF00D1124E65EFC4F808181FF03C0C8
:100C000090E080E002C0902F812F9093A502809306
:100C1000A60205C081FF03C0C9010E94A81F8091E0
:100C2000D90180FF9BC00E9477196C01F701828176
:100C30008823D9F18091100182FF08C025E431E0BA
:100C400040E0B60180E090E00E94C1220B31FCE55B
:100C50001F0779F00C312CE5120789F00A313CE5C9
:100C60001307A1F480911001982F909590FB80F9C3
:100C700009C08091100181608093100107C08091AC
:100C800010018E7F809310010E948222C80190562D
:100C9000811540E2940720F0905E8115904180F527
:100CA0001092E5011092E40159C0013E110521F4B2
:100CB000809110018F7E06C0053E110531F48091B0
:100CC00010018F7D809310011BC0C80190568115C3
:100CD000A0E29A0720F0905E8115904188F48091FF
:100CE000100182FF3BC08091DB0181FD37C025E40C
:100CF00031E040E0B60180E090E00E94C1222EC0C9
:100D00008091100180FF2AC0F7018281083211050D
:100D100038F40E311105B8F40430110578F41CC014
:100D20000933110538F40D32110590F40B32110519
:100D300079F012C00436110559F00EC09091D90116
:100D400094FD0AC01EC29091D90193FD05C019C23D
:100D50009091D90192FF15C2811141C0033FFCE57A
:100D60001F0709F469C008F06DC0083D3CE5130792
:100D700009F45CC0093D4CE5140709F47FC0073D48
:100D80005CE5150709F44CC0F701228121117FC0F1
:100D90000631BCE51B0709F0CFC280919D01982F59
:100DA0009A7A3091D80130FDA0C231FDA4C232FD43
:100DB000A8C233FDACC2222309F4B2C281E0911172
:100DC00001C080E080932C01992309F4A7C265E358
:100DD0008DE891E00E94B9190E945228CCC210926D
:100DE000E5011092E401033FFCE51F0729F170F4CF
:100DF000083D3CE51307D1F0093D4CE51407F1F13E
:100E0000073D5CE5150709F042C00AC0053F8CE5C7
:100E1000180719F1E0F0063FACE51A0749F137C0B1
:100E200006E221EE41EE67ED7CE52DC007E225EEFE
:100E300045EE68ED7CE527C006E221EE40EE63EF6B
:100E40007CE521C0053F8CE5180739F060F407E226
:100E500025EE44EE64EF7CE516C006E221EE42EE9C
:100E600065EF7CE510C0063FACE51A0709F08CCFB2
:100E700007E225EE46EE66EF7CE505C008E221E0DC
:100E800045EE69ED7CE5C7010E94EA1F74C210922D
:100E9000A3020330FDE51F0758F40A3F2CE51207B3
:100EA000C0F4C80182509C45449708F01CC211C090
:100EB000053A3DE5130769F030F401365DE51507A5
:100EC00009F011C206C0C8018D5A9D45039708F06C
:100ED0000AC20E94392790939C0180939B010231A2
:100EE0008CE5180709F40CC108F04DC00930ACE5D9
:100EF0001A0709F4D9C008F50530ECE51E0709F416
:100F0000C0C080F403302CE5120709F4B1C008F02A
:100F1000B5C002304CE5140709F02AC180919B014D
:100F20008160A9C007305CE5150709F4B5C008F079
:100F3000B7C080919B0180619EC00D309CE5190770
:100F400009F4C8C058F40B30BCE51B0709F4B6C05F
:100F500008F0BCC080919B018860ACC00F30FCE5FC
:100F60001F0709F4C5C008F4B8C000313CE51307F9
:100F700009F4C2C001314CE5140709F0F9C08091B1
:100F80009B018F7B78C00F3F5CE5150709F4C3C058
:100F900098F50A3F9CE5190709F477C0C0F40431BD
:100FA000BCE51B0709F4C6C008F4B0C00531FCE578
:100FB0001F0709F0DDC080919B0182FB222720F9E9
:100FC00091E0922790FB82F990FB83F954C00C3F8B
:100FD0002CE5120709F485C008F45AC00D3F4CE512
:100FE000140709F481C00E3F5CE5150709F0C0C085
:100FF00080919C01826060C001368DE5180709F47C
:10100000ABC070F40130ADE51A0709F49FC008F4D5
:1010100087C00230EDE51E0709F0AAC060E097C066
:101020000D3AFDE51F0701F160F4053A3DE51307B0
:1010300009F09EC080919B01982F909590FB80F9BC
:101040001AC00E3A4DE51407E9F10F3A5DE51507B0
:1010500009F08EC080919C0183FB222720F991E04A
:10106000922790FB83F982C080919C0188607EC0AA
:1010700080919B01826080939B017AC080919B014B
:1010800019C080919B018860F6CF80919C0114C0AB
:1010900080919C0182606AC080919B018062EBCF4D
:1010A00080919B018064E7CF0E94C71A80919B01C9
:1010B0008068E1CF8460DFCF816058C080919B0160
:1010C0008E7FD9CF80919C01877F50C080919B01FA
:1010D0008D7FD1CF80919B011CC080919B01877F28
:1010E000CACF80919C011AC080919C018D7F3EC027
:1010F00080919B018F7EBFCF80919B018F7DBBCF65
:101100000E94C71A80919B018F77B5CF80919B0178
:10111000877F8B7FB0CF80919C018D7F8E7F26C093
:1011200080919C01982F909591708E7F892B90FBD8
:1011300081F91CC00E94C71A80919B0187FB22275E
:1011400020F991E0922790FB87F995CF61E08EE03E
:1011500090E00E9441300CC080919B0184FB2227CB
:1011600020F991E0922790FB84F985CF80939C0130
:1011700080919B0190919C010E942B270E94C71A8D
:10118000FAC0882309F4A8C09091FE0280919D01C5
:10119000892B8D7F79F11092E5011092E401809105
:1011A000D90181FD27C0F80143E0F695E7954A95FE
:1011B000E1F7EE71FF27E256FE4F98012F703327BB
:1011C00081E090E002C0880F991F2A95E2F7809590
:1011D0009095208131818223932391838083A7017D
:1011E00060E0C8010E94A1228091FE028D7F0E94D2
:1011F000C0276EC088E0F701A5E4B1E001900D9230
:101200008A95E1F710924701109249011092480126
:101210008091E4019091E50108171907E1F58091AB
:10122000D90185FF38C09091100191FF02C086FF5F
:1012300032C08091E2019091E3015601A81AB90AE7
:10124000B701C8010E942D2DA816B90620F580917E
:101250009D0181FF08C08091100180618093100181
:1012600082E00E94DB2780919D0185FF08C080916C
:10127000100180628093100180E20E94DB27609160
:10128000100166956170A7018091E4019091E501DC
:101290000E94A12270C08091FE0290919D01982B26
:1012A000969591702091100190FB21F920931001E7
:1012B0008D7F0E94C0271093E5010093E401D09236
:1012C000E301C092E20180911001846080931001DB
:1012D00082E00E94EF274FC0970140E0B601C801AD
:1012E0000E94C12248C021E053CD482F447409F424
:1012F0005CCD90E05ACD482F417109F458CD90E073
:1013000056CD482F487809F454CD90E052CD8272E2
:1013100009F451CD222321F010922C0169E258CD1D
:1013200080912C01882311F065E301C069E28DE80A
:1013300091E00E94AC1950CDD70112968C91882370
:1013400009F4A5C00A358DE5180709F49BC008F01B
:1013500085C00115ACE51A0709F079C00E94C71ACB
:101360003FEF44E35CE0315040405040E1F700C0C3
:1013700000000E9425198091F302877009F430C3A0
:10138000D70112968C91882309F42AC380919C017D
:1013900082FF26C382E00E94EF2722C30031FFE5CF
:1013A0001F0721F481E00E948C1A38CA01312FE511
:1013B000120709F036CA82E0F6CF6BE073E08C2D9D
:1013C0000E949824892B09F035CA8EE08C9DF0018B
:1013D0008D9DF00D1124EB5EFC4F82818130E1F494
:1013E00080910B0390910C03892B09F423CA8091FF
:1013F0000D0390910E03892B09F41CCA80910F03F1
:1014000090911003892B09F015CA809111039091D6
:101410001203892B59F00ECA823009F00BCA809151
:101420000F0390911003892B09F404CA2EE02C9D20
:10143000C0012D9D900D1124FC01E65EFC4F208122
:101440002E7F20838B5E9C4F0E94C21FF3C90E3DEE
:10145000BCE51B07E1F40E944A2709C00C35EDE505
:101460001E0741F088F0073A2DE5120781F40E942B
:10147000A92B81CF80919C0182FB882780F991E084
:10148000892703C081E001C080E00E940C28F70199
:10149000868197810097B9F4F701828100811181DB
:1014A000882349F0C8010E94E019D82E682FC8018E
:1014B0000E94501A04C0C8010E941C1AD82EB801FC
:1014C0008D2D0E94EA230E94B225182F092FD701E3
:1014D0001296BC9012971596CC90C2943FE0C3220E
:1014E0008091F3028770B9F0BB20A9F0892F807F2B
:1014F000803421F080E2810F883068F080919C0177
:1015000082FF09C082E00E94EF278091F30287707A
:10151000AA24A3948111A12C902E92942FE09222C0
:10152000892D90E08C30910508F009C2FC01EA5A3F
:10153000FF4F0C947D30902F9F70802F807FD92E8D
:1015400019F0D29490EFD922BB20A9F0DD2009F444
:10155000D6C180E2810F883010F0111104C08D2DAA
:101560000E94E22705C08091A402D82AD092A4024A
:101570000E945228C4C1812F0E94F41ADD2009F470
:10158000DEC180E2810F883068F1112359F18D2D81
:101590000E94D4272AC0902F9F70802F807FD92E41
:1015A000803219F0D29480EFD822112321F011302B
:1015B00009F465C070C080919C0182FD19C0BB20F8
:1015C00059F0DD2029F08D2D0E94E2270E9452283B
:1015D00080E00E94421BB3C180E00E94F41ADD202B
:1015E00009F4ADC18D2D0E94DB270E945228A7C1AE
:1015F000BB2011F1CC20E1F0B1E0CB1206C080910C
:10160000FE028D290E94C0279AC18091DA018230A2
:1016100078F0C8120DC00E94B52790912D018D2D34
:10162000892B891380932D018D2D0E94ED1A87C17E
:101630008091FE028D29F9CFCC20F1F08091DA0162
:10164000E1E0CE1214C0823008F479C180919D018E
:101650008D2109F474C10E94B52790912D018D2D23
:10166000809589238917C1F180932D0135C082307F
:1016700018F0C81609F463C10E94B5272DC08091E7
:10168000E001BB2021F08C1508F459C1CDCFC8165C
:1016900008F055C121C0BB20E9F0CC2029F220E0A0
:1016A000D7014C9111965C91119712966C911297FB
:1016B00013967C91139714968C910E9438298091EF
:1016C000DB0181FD1CC1F701858180FF18C18F708E
:1016D0008583AACFC1101CC18D2D0E94E61A2FC18F
:1016E000802F8370A1F5B1102EC1412F42954695F0
:1016F0004770440F440F212F2F7030E0C901042E92
:1017000001C0880F0A94EAF714FF08C02FE030E008
:1017100001C0220F4A95EAF7209501C020E0302F42
:10172000369536953370323069F040F44091FF02BF
:10173000313019F0822B842302C0842B822B0E942B
:10174000A51A01C1282B8091FF028227F8CFBB2068
:1017500019F0802F817001C08695882309F4F3C0A9
:10176000412F429546954770440F440F212F2F700B
:1017700030E0C901042E01C0880F0A94EAF714FF73
:1017800008C02FE030E001C0220F4A95EAF720950B
:1017900001C020E0302F369536953370323051F04D
:1017A00070F440916104313019F0822B842308C019
:1017B000842B05C0282B80916104822701C0822BD5
:1017C0000E94851AC0C0F02FFF70DF2EBB2039F0B9
:1017D0008F2F0E94991A812F0E94ED1AB4C0812F79
:1017E0000E94E61A8D2D0E948C1AADC0123F11F195
:1017F00028F4103F41F0113FA9F17DC0133F01F1E2
:10180000143F61F178C08091E001BB2021F0C8163F
:1018100008F095C003C08C1508F491C0202F2F71DB
:1018200081E090E001C0880F2A95EAF79091610469
:10183000892711C0802F8F71BB2009F464C07BC041
:10184000BB2041F081E0902F9F7101C0880F9A95D5
:10185000EAF701C080E00E94851A71C080919C0166
:1018600082FD06C0802F8F71BB2009F464C04BC07D
:101870008091DA01823040F1BB20C1F09091F302F7
:101880009770943039F40E94E827802F8F710E945E
:101890008C1A54C0C81608F051C0202F2F71D22EB8
:1018A000822F0E94991A63E08D2D07C0C81640F060
:1018B0000E94E82764E0802F8F710E9421283EC09B
:1018C00081E00E94EF273AC0BB2059F0302F3F71D2
:1018D000D32E832F0E94991A63E08D2D0E94212818
:1018E0002EC081E00E94EF2741E04C1540F582E0D8
:1018F0000E94EF2724C0BB2049F0CC2011F0812F9B
:1019000068CE802F8F710E94991A19C0CC2089F05F
:10191000193329F48091DE019091DF0104C0809198
:10192000DC019091DD010E94B622812F0E94F41A01
:1019300006C0802F8F710E948C1A01C0A12C88EFE5
:10194000890D843010F40E94D319812F902F0E94AA
:10195000AC1A811105C010922F0110922E0125C0E2
:10196000BB2019F0C110F7CF20C0C110F4CF20E088
:10197000D7014C9111965C91119712966C91129728
:1019800013967C91139714968C910E94382980911C
:10199000DB0183FFE0CF80912E0190912F01029710
:1019A000D1F6812F0E94721BD6CFAA20A9F0809178
:1019B000F30280FD11C0F70112828595859585950A
:1019C0000E94991AC7010E9409038091F30285952C
:1019D000859585950E948C1A60E0C7010E945B295D
:1019E0002C96E2E10C94A630ACE3B0E0EAEFFCE028
:1019F0000C948A3085B7806885BF85B7806885BFBD
:101A000084B7877F84BF0FB6F894A8958091600053
:101A1000886180936000109260000FBE90E080E8C3
:101A20000FB6F89480936100909361000FBE8DEA29
:101A300094E290932901809328010E944B2D0E94EB
:101A4000E92C0E94752C0E947F230E94A1170E94FE
:101A5000C0178091E20084608093E20078948091C6
:101A600060048823A1F01091E9001F709091EC00B0
:101A7000892F817090FD80E8182B1092E9008091E9
:101A8000E80083FD0E948A141F701093E90082E031
:101A900084BD93E095BD9AEF97BD80936E000E9440
:101AA000F92E811102C00E94E92E0AE111E092E2B2
:101AB000E92E91E0F92ED8018D918D018F3F11F023
:101AC0000E94F224E016F106B1F702E211E088E28A
:101AD000E82E81E0F82EF80181918F018F3F11F0FF
:101AE0000E94F224E016F106B1F788E0E2E5F1E0A9
:101AF000DF01282F1D922A95E9F7E0E3F1E0DF01ED
:101B00001D928A95E9F780E090E00E943B30883E84
:101B10009E4F21F40E94F92E811102C00E944A2793
:101B200082E090E00E94333080933A010E9439278E
:101B300090939C0180939B010E940925EFEFF6E7AB
:101B400021E0E150F0402040E1F700C000000E9499
:101B500009258091520180FF08C06FEF7FEF80E080
:101B600090E00E945F300E94251983E090E00E947F
:101B700033300E94A51A81E091E090935B0180933D
:101B80005A012E013BE2430E511C809160048530C6
:101B900009F044C000E112E180916004853009F051
:101BA00039C080916004843021F110925C0188E199
:101BB00090E0A0E40FB6F894A895809360000FBE63
:101BC000A093600083B7817F846083BF83B7816007
:101BD00083BF7894889583B78E7F83BF0FB6F894C0
:101BE000A8958091600088618093600010926000E9
:101BF0000FBE80916D01882309F4CECF0E94092584
:101C0000E2E5F1E08191811181C5B1E0EA35FB07A0
:101C1000C9F7C2CF0E94C71A0E94D3190E94092592
:101C20000BE311E0B2E5CB2EB1E0DB2E23E431E093
:101C3000D601F80191918D9189272E173F0719F050
:101C40008823C1F322C0811120C00E9477198C0122
:101C500080913801909139010817190709F44AC099
:101C60008FEF8BAB8CAB1DAA0E9477198160782F08
:101C70009FAB8EAB4BA95CA96DA98FA90E94692966
:101C8000109339010093380135C0A2E5EA2EA1E096
:101C9000FA2EB12CF70171907F01D8018C90872426
:101CA00009F1A12C99249394882D8921A1F0A8AE43
:101CB000B9AE91E0872D892109F490E09AAF0E9496
:101CC00077198160782F9CAF8BAF48AD59AD6AAD65
:101CD0008CAD0E946929A394990CB6E0AB12E4CFB5
:101CE000F8017082B3940F5F1F4FF8E0BF12D2CF9C
:101CF0000E946B1980919D0290919E02892B09F49C
:101D00003EC0409192025091930260919402709172
:101D100095022FB7F89480915D0190915E01A0919A
:101D20005F01B09160012FBF841B950BA60BB70B11
:101D300040918E0250918F026091900270919102B9
:101D400084179507A607B707D0F080919D02909160
:101D50009E020E94062C10929E0210929D021092EA
:101D60009202109293021092940210929502109295
:101D70008E0210928F021092900210929102809126
:101D8000A5029091A602892B31F180914301909197
:101D900044010E945C198C0188E0D2011D928A9551
:101DA000E9F7B2018091A5029091A6020E942D2D23
:101DB0008017910780F48091A502BEE08B9FC0013F
:101DC0001124FC01E65EFC4F208122FD04C08B5EE5
:101DD0009C4F0E94C21F80911101882341F1809184
:101DE0008C0290918D02009711F10E945C19209154
:101DF000E6013091E70128173907C8F490918A026B
:101E000080918B02981759F00E94E9211092E70106
:101E10001092E60110928D0210928C0208C00E946E
:101E2000792110928D0210928C020E94C92180911A
:101E3000D90180FF1EC08091100182FF1AC00E944C
:101E400077192091E2013091E301AC01421B530B61
:101E500020910E0130910F014217530750F025E4F5
:101E600031E041E0BC018091E4019091E5010E94E4
:101E7000C1220E94D31990914D01891721F08093BE
:101E80004D010E946B1980916004843009F07DCE71
:101E900083E08093E9008091E80082FF76CE809114
:101EA000E80085FF23C00E94F21881111DC0F0E2F6
:101EB000EF2EF12C8E010F5F1F4F09C08091F100B2
:101EC000F80181938F01F1E0EF1AF10869F0809138
:101ED000E80085FDF3CF8091E8008B778093E800E0
:101EE0000E94F218882399F391E001C090E080915C
:101EF000E8008B778093E800992309F446CE00919F
:101F0000990110919A0189810115110561F08E3FA7
:101F100009F0F7C38A81833008F4B9C18550833052
:101F200008F0EFC3B4C18B3009F49AC108F58530CD
:101F300009F46EC0A8F48230D9F130F4813009F090
:101F4000DEC31A8289E00EC3833009F454C08430A2
:101F500009F0D5C34C816B818A810E94472C0AC24B
:101F6000873009F4CCC308F0CAC30E940724C9C350
:101F7000803109F4B4C080F48D3009F456C008F4FF
:101F800052C09E012F5F3F4F69018E3009F451C04E
:101F90008F3009F477C0B3C3823109F4A6C008F4C6
:101FA000A1C0833109F4CDC08E3F09F470C1A7C32D
:101FB0008A81823009F4C0C3833051F0813009F046
:101FC0009EC30E946B199B838C837D836E8399C310
:101FD0008091950190919601892B09F492C3FE019D
:101FE0003396CE010B96D6012D916D012193E81702
:101FF000F907C9F786C38A81823009F080C36B81F3
:102000007C818D819E810E9483300E94C52E79C380
:102010002D813E813227232732274C816B818A8193
:102020000E94202C6EC380E15EC0B1E0BA8385E4DB
:1020300099C20A811B81102701271027AC80B12C7F
:10204000EDE1AE16B10408F05CC37901C801855416
:102050009D4F97012C193D092A153B0508F051C3E6
:102060000534F1E01F0730F40E943330D701149695
:102070008C9302C0F70114820F5F1F4FFFEFEF1A1E
:10208000FF0AE4CF8091950190919601892B09F484
:1020900038C30A811B81102701271027EC80F12CFF
:1020A0002DE1E216F10408F02CC35601C801855455
:1020B0009D4F95012C193D092E153F0508F021C3B0
:1020C000053431E0130728F4D50114966C910E9471
:1020D00041300F5F1F4FBFEFAB1ABB0AE7CF0E9423
:1020E000DA230FC384E08A830CC30A811B81102783
:1020F00001271027CC80D12CEDE1CE16D10408F0B9
:1021000000C39E012F5F3F4F59017901C801879697
:1021100097012A193B092C153D0508F0F2C2003839
:1021200031E0130730F40E943330D70114968C93BA
:1021300002C0F70114820F5F1F4FFFEFEF1AFF0A73
:10214000E5CF0A811B81102701271027CC80D12CD5
:102150002DE1C216D10408F0D4C2380137E2630E73
:10216000711C003841E0140708F0CBC280E891E010
:10217000801B910B8C159D0508F4C3C280919501BD
:1021800090919601DE0111965D01892B11F0750188
:102190005EC000FF0FC0C80186960E94333090E0F9
:1021A000982F88272D81822B81159C4531F48FEF44
:1021B0008D8303C0E12CF12C03C0EE24E394F12CB9
:1021C000C601800F911F460180FF1BC0E1E08E1AFF
:1021D000910855E0252E312C2C0E3D1E280C391C63
:1021E000C3018C0D9D1D0E943330D1012C9130E034
:1021F000322F2227282B21153C4519F48FEFF101AE
:102200008083F501EE0DFF1D2FEFCF018A199B0989
:102210008815990508F0BBCF848190E0982F882716
:102220003581832B81159C4511F4248325833296B7
:10223000ECCF003841E0140728F4D70114966C91D4
:102240000E9441300F5F1F4FBFEFEB1AFB0AC8011E
:10225000879697012A193B092C153D0550F351C269
:102260008091950190919601892B09F44AC2CE0183
:1022700001960E94F42FEFEFF1EE24E0E150F040E0
:102280002040E1F700C000000E9425193AC2EA810F
:102290008E2F90E08E30910508F033C2FC01EE598C
:1022A000FF4F0C947D3088E0E2E1F1E0DE01919691
:1022B00001900D928A95E1F7FE01319680E2DF01EF
:1022C0001D928A95E9F785E0898388E0B096DE0162
:1022D0001596B0C184E18983B1E0BA831B821C8268
:1022E00010C28C8190E0982F88272B81820F911D3E
:1022F000092E000CAA0BBB0B35E0880F991FAA1FF3
:10230000BB1F3A95D1F7AC01BD01405E5F4F6F4FE7
:102310007F4F481759076A077B0708F4F2C18431D9
:10232000E1E09E07A105B10508F0EBC14531F1E000
:102330005F076105710520F044E151E060E070E065
:10234000481B590BBC016E5F7E4FCE0101960E9467
:102350001A30D7C140E250E06FEF70E0CE01019635
:102360000E94D7308091950189830A831B8285E082
:102370008C8392E09D83E7C181E090E090939A0185
:102380008093990182E390E09093510180935001F2
:102390000E94771990934F0180934E01B2C1012B97
:1023A000C1F11091540115FB112710F980915201D0
:1023B00085FB882780F9182380914E0190914F0169
:1023C0000E945C1985369105F0F01123E1F00E941E
:1023D000771990934F0180934E0180915001909115
:1023E000510101979093510180935001892B89F4F9
:1023F00010929A011092990181E090E090939601D9
:102400008093950106C082E390E090935101809300
:102410005001809195018983809199018A838091EF
:102420005001A0C010929601109295016AC10B81D3
:102430001C8140E250E06FEF70E0CE0101960E94F7
:10244000D73024E934E0A4E2B5E080E090E0AC01CC
:102450004E5F5F4F4132510508F053C1F90165915C
:1024600074910617170748F4E1E0F0E0EC0FFD1F48
:10247000E80FF91F71836083CA01245F3F4FA217E1
:10248000B30729F73EC12B813C8184E994E0FC012C
:10249000459154914217530731F00C9645E0843230
:1024A0009407A9F72CC1009709F429C1FC013696BD
:1024B000259134912115310509F421C14FE150E0F6
:1024C000BE016E5F7F4FF90109951AC12B813C81D6
:1024D00084E295E004E914E0F80145915491241751
:1024E000350731F0045F1F4F80179107A9F707C127
:1024F0000115110509F403C1F801389625913491AD
:102500002115310509F4FBC04CE150E0BE016B5FC1
:102510007F4FC801F9010995009709F0F1C0F80152
:102520003A9685919491009711F0FC01099580E00D
:10253000E7C00E94A623E5C0EB818E2F90E0873094
:10254000910508F0DEC0FC01E059FF4F0C947D308E
:10255000FE01319680E2DF011D928A95E9F788E05D
:1025600089838A838B83CDC08C811AE07E01B1E29E
:10257000EB0EF11CF701212F11922A95E9F7B70113
:102580000E9498248983F701DE01129601900D9232
:102590001A95E1F7B6C01C818AE0FE013596DE018E
:1025A000919601900D928A95E1F789A19AA10E94D6
:1025B000B52E9AA389A38BA19CA10E94B52E9CA3A2
:1025C0008BA38DA19EA10E94B52E9EA38DA38FA14A
:1025D00098A50E94B52E98A78FA3183070F43AE002
:1025E000139FB001112465537E4F4AE050E0CE01A5
:1025F00081960E94653080E001C08FEF89830E9440
:102600004B2D7FC06C81CE0181962AE0DC011D92AA
:102610002A95E9F7683038F4BAE06B9FB0011124CD
:10262000655E7D4F41C08FEF89838AE0FE01B196E0
:10263000DE01129601900D928A95E1F762C01C812D
:102640008AE0FE013596DE01919601900D928A9501
:10265000E1F789A59AA50E94B52E9AA789A71830F7
:1026600070F4EAE01E9FB0011124655E7D4F4AE0E0
:1026700050E0CE0181960E94653080E001C08FEF6E
:1026800089830E94E92C3DC06C81CE0181962AE0AD
:10269000DC011D922A95E9F7683028F6BAE06B9FB5
:1026A000B001112465597D4F4AE050E00E9423306B
:1026B00080E0BACF1C818AE0FE013596DE0191965A
:1026C00001900D928A95E1F78BA19CA10E94B52EF5
:1026D0009CA38BA3183070F4EAE01E9FB001112474
:1026E00065597D4F4AE050E0CE0181960E946530E9
:1026F00080E001C08FEF89830E94752C02C08FEFAC
:102700008983CE0101960E94F42F3FCA09BD19BDED
:1027100009B400FEFDCF8091D8008F7D8093D80052
:102720008091E00082608093E0008091E00081FD74
:10273000FCCF0E94C71A30CA86E290E00E94333074
:102740001B821C821D828E83DCCF80916F0187FFEC
:1027500011C08091E80082FD05C080916004811164
:10276000F8CF11C08091E8008B770BC08091600496
:10277000882349F08091E80080FFF8CF8091E8003D
:102780008E778093E8000895982F973068F590939E
:10279000E900981739F07091EC002091ED0050910C
:1027A000F00003C0242F762F50E021FD02C09F5F70
:1027B000ECCF3091EB003E7F3093EB003091ED0099
:1027C0003D7F3093ED003091EB0031603093EB00B2
:1027D0007093EC002093ED005093F0002091EE00F8
:1027E00027FDE5CF80E008958F708093E90081E0B8
:1027F000089520917501309176012617370748F02A
:102800006115710539F42091E8002E772093E800D6
:1028100001C0B901FC0120E06115710579F18091D9
:1028200060048823F1F18530F1F18091E80083FDA7
:102830003CC08091E80082FD2EC08091E80080FFBE
:10284000EBCF2091F3008091F20090E0922B611584
:10285000710551F08830910538F421912093F100F1
:10286000615071090196F3CF21E0089709F020E04B
:102870008091E8008E778093E800CECF2111CFCFF2
:102880000AC080916004882361F0853061F08091F6
:10289000E80083FD0AC08091E80082FFF2CF80E06B
:1028A000089582E0089583E0089581E008950895F1
:1028B000089508950895809163010895CF93DF935B
:1028C00021E02093E9002FEF3091E800215035FD01
:1028D00006C035ED3A95F1F700002111F5CF2091B2
:1028E000E80025FF14C0EC0140E050E068E070E033
:1028F0000E94CA2F8091E8008E778093E80088E0DC
:10290000FE01A4E6B1E001900D928A95E1F7DF9116
:10291000CF910895AAE2B0E0E0E9F4E10C94993097
:10292000EFE6F1E08091F100819321E0E737F207D3
:10293000C9F780917001833009F461C030F48130AF
:1029400071F0823009F49BC0B2C08A3009F487C0AC
:102950008B3009F46CC0893009F0A9C020C0809187
:102960006F01813A09F0A3C08091E800877F8093CE
:10297000E8008091730190917401892B21F468E043
:1029800084E691E003C060E080E090E070E00E94A7
:10299000F9138091E8008B778093E80088C08091DC
:1029A0006F01813209F083C08091730190917401AD
:1029B000892B09F07CC08091E800877F8093E80034
:1029C0008091E80082FD05C0809160048111F8CFFC
:1029D0006EC02091F3008091F20090E0922B02975C
:1029E00031F48091F100813011F0863021F4809132
:1029F000F100809363018091E8008B7754C080914F
:102A00006F01813A09F053C0809173019091740174
:102A1000892B09F04CC08091E800877F8093E80003
:102A20008091E80080FFFCCF80910D0137C080913C
:102A30006F018132E1F58091730190917401892BCE
:102A4000B1F58091E800877F8093E8000E94A5138C
:102A50008091710180930D010E94C71A28C0809156
:102A60006F01813221F58091E800877F8093E80033
:102A70000E94A513809172018093620118C0809119
:102A80006F01813AA1F48091E800877F8093E8008C
:102A90008091E80080FFFCCF809162018093F1007B
:102AA0008091E8008E778093E8000E94A5138091C2
:102AB000E80083FFE0C180916F0190917001492F80
:102AC00050E04A30510508F0D6C1FA01E958FF4FED
:102AD0000C947D30803821F0823809F0CCC108C0D8
:102AE00080916C0190916D01992389F082600FC0F3
:102AF000809173018F70873008F0BDC18093E90029
:102B00008091EB0085FB882780F91092E900909175
:102B1000E800977F9093E8008093F1001092F10015
:102B200072C1282F2D7F09F0A6C1882319F08230A9
:102B300061F0A1C180917101813009F09CC1933095
:102B400009F080E080936D012EC0809171018111A8
:102B50002AC0809173018F702FEF280F263008F064
:102B60008AC18093E9002091EB0020FF1CC09330C4
:102B700021F48091EB00806214C09091EB00906191
:102B80009093EB0021E030E0A90102C0440F551FF3
:102B90008A95E2F74093EA001092EA008091EB00F8
:102BA00088608093EB001092E9008091E800877FB5
:102BB0002DC1811160C1109171011F778091E300D7
:102BC0008078812B8093E3008091E800877F809359
:102BD000E8000E94A5138091E80080FFFCCF80915F
:102BE000E30080688093E300111102C082E001C01D
:102BF00083E0809360043FC18058823008F03BC17D
:102C000080917101909172018C3D53E0950779F5A7
:102C100083E08A838AE289834FB7F894DE011396B2
:102C200020E03EE051E2E32FF0E050935700E491C2
:102C300020FF03C0E295EF703F5FEF708E2F90E0B2
:102C4000EA3010F0C79601C0C0968D939D932F5F18
:102C5000243149F74FBF8091E800877F8093E800D7
:102C60006AE270E0CE0101960E94F913BAC0409169
:102C7000730150917401292F332723303105B1F0AE
:102C800068F42130310509F405C12230310509F01D
:102C9000F2C082E490E0E8E7F2E050C02132310572
:102CA00081F12232310509F439C0E5C0992781301C
:102CB0009105B9F070F082309105D9F0039709F0D1
:102CC000DAC0ECECF2E0E4918E2F90E0ECECF2E074
:102CD00032C0E0E1F3E0E4918E2F90E0E0E1F3E038
:102CE0002AC0EEEFF2E0E4918E2F90E0EEEFF2E0FA
:102CF00022C0EAEEF2E0E4918E2F90E0EAEEF2E0FC
:102D00001AC04115510509F4CAC04130510509F0F6
:102D1000B2C089E090E0E3EAF2E010C0411551054D
:102D200009F4C2C04130510509F0A5C082E290E02B
:102D3000E6E1F2E003C0009709F49DC02091E800AD
:102D4000277F2093E800209175013091760182174A
:102D5000930708F49C0140E02115310589F1809129
:102D60006004882309F43DC08530D9F18091E800E2
:102D700083FD37C08091E80082FD2FC08091E8007C
:102D800080FFEACF4091F3008091F20090E0942B15
:102D90002115310559F08830910540F44491409354
:102DA000F1003196215031090196F2CF41E00897A8
:102DB00009F040E08091E8008E778093E800CCCF66
:102DC0004111CDCF0AC080916004882351F0853035
:102DD00041F08091E80083FD04C08091E80082FF0B
:102DE000F2CF8091E8008B778093E80044C0803870
:102DF00009F041C08091E800877F8093E8008091CE
:102E00006E018093F1008091E8008E778093E80056
:102E10000E94A51330C081112EC080917101909144
:102E20007201992702973CF58091E800877F809393
:102E3000E8001091710110936E010E94A513111109
:102E400006C08091E30087FD02C081E001C084E0FC
:102E50008093600442E061EC81E00E94C41342E28E
:102E600061EC82E00E94C41342E260EC83E00E94C5
:102E7000C413809160048091E80083FF1AC08091A0
:102E8000E800877F8093E8008091EB008062809368
:102E9000EB000FC082E190E0EAEBF2E04FCF89E077
:102EA00090E0EAE8F2E04ACF80E490E0E8E3F2E084
:102EB00045CFAA96E3E00C94B5301F920F920FB65F
:102EC0000F9211242F933F934F935F936F937F93B0
:102ED0008F939F93AF93BF93CF93DF93EF93FF9322
:102EE000C091E900CF708091EC00D82FD17080FDA7
:102EF000D0E81092E9008091F000877F8093F00085
:102F000078940E948A141092E9008091F000886001
:102F10008093F000CD2BCF70C093E900FF91EF912B
:102F2000DF91CF91BF91AF919F918F917F916F91E1
:102F30005F914F913F912F910F900FBE0F901F9077
:102F40001895E8EDF0E080818E7F80831092E2009A
:102F50001092DA001092E100A0EEB0E08C91816056
:102F60008C9380818F77808319BCA7EDB0E08C9122
:102F70008E7F8C9380818F7E808310926101089573
:102F8000A0E0B0E0E6ECF7E10C949430C8EDD0E0BE
:102F900088818F7E8883E7EDF0E080818160808387
:102FA00084E082BF81E08093610188818E7F888385
:102FB00002EE10E0F80110821092DA0081EEC82EC5
:102FC000D12CF601108288818F7788838881806870
:102FD000888388818F7D888319BC10926004109249
:102FE0006E0110926D0110926C0190EEE92EF12CA1
:102FF000F70180818B7F808388818160888342E0B4
:1030000060E080E00E94C413F60180818E7F80839F
:10301000F801808181608083808188608083F701EE
:1030200080818E7F8083888180618883CDB7DEB781
:10303000E8E00C94B0301F920F920FB60F9211245B
:103040002F933F934F935F936F937F938F939F93B0
:10305000AF93BF93EF93FF938091E10082FF09C08C
:103060008091E20082FF05C08091E1008B7F809318
:10307000E1008091DA0080FF2AC08091D80080FFB3
:1030800026C08091DA008E7F8093DA008091D9008B
:1030900080FF18C080E189BD82E189BD09B400FECE
:1030A000FDCF81E0809360048091610181110FC0A8
:1030B0000E94A1170E94C0178091E2008460809353
:1030C000E20005C019BC1092600410926101809169
:1030D000E10080FF17C08091E20080FF13C0809163
:1030E000E2008E7F8093E2008091E2008061809315
:1030F000E2008091D80080628093D80019BC85E0FE
:10310000809360048091E10084FF30C08091E200F0
:1031100084FF2CC080E189BD82E189BD09B400FE35
:10312000FDCF8091D8008F7D8093D8008091E10001
:103130008F7E8093E1008091E2008F7E8093E20099
:103140008091E20081608093E20080916E0188238B
:1031500011F084E007C08091E30087FD02C081E0A8
:1031600001C083E080936004809160048091E1005D
:1031700083FF27C08091E20083FF23C08091E1009C
:10318000877F8093E10082E08093600410926E015B
:103190008091E1008E7F8093E1008091E2008E7F3C
:1031A0008093E2008091E20080618093E20042E03F
:1031B00060E080E00E94C4138091F00088608093FA
:1031C000F000FF91EF91BF91AF919F918F917F910F
:1031D0006F915F914F913F912F910F900FBE0F9084
:1031E0001F9018952091E4003091E50095E64091FC
:1031F000EC00842F817040FF23C08091E80080FDA7
:103200001DC080916004882399F0853099F08091E9
:10321000EB0085FD11C04091E4005091E5002417BA
:10322000350729F3915011F09A01E1CF84E0089518
:1032300082E0089583E0089581E0089580E0089594
:103240004091E80042FFDDCF089587E797E790932C
:103250000108809300089AE088E10FB6F894A895D9
:10326000809360000FBE90936000FFCF78941F9210
:103270000F920FB60F9211248F939F93AF93BF932A
:1032800080915D0190915E01A0915F01B09160011C
:103290000196A11DB11D80935D0190935E01A093E5
:1032A0005F01B0936001BF91AF919F918F910F909B
:1032B0000FBE0F901F9018959C014FB7F894809106
:1032C0005D0190915E01A0915F01B09160014FBFDF
:1032D000821B930B08952FB7F89460915D01709154
:1032E0005E0180915F01909160012FBF08952FB71B
:1032F000F89480915D0190915E01A0915F01B09181
:1033000060012FBF08951F920F920FB60F921124E4
:103310008F939F93AF93BF9380915C01811113C0F2
:1033200080915D0190915E01A0915F01B09160017B
:103330004196A11DB11D80935D0190935E01A09304
:103340005F01B0936001BF91AF919F918F910F90FA
:103350000FBE0F901F9018959C012A5F3F4FFC01F4
:103360004281461301C01282019682179307B9F772
:1033700008959C01FC0132969FEF80E04191461731
:1033800089F09F3F19F4411101C0982F8F5F86305B
:10339000A9F79F3F39F0F901E90FF11D97FDFA9563
:1033A000628308950895E0915A01F0915B0130978E
:1033B00029F00190F081E02D0995089580E00895AD
:1033C000CF92DF92FF920F931F93CF93DF936C0105
:1033D000009161048091FF02082BC7E0D0E010E06B
:1033E000C8010C2E02C0959587950A94E2F780FDDE
:1033F00004C02197A8F7F12C09C0FC2EB6018C2F30
:103400000E94EA230E94B225019799F38F2DDF9144
:10341000CF911F910F91FF90DF90CF900895CF93A0
:10342000DF93EC010E94E019BE010E94EA230E9492
:10343000B225DF91CF910895292F983078F5863005
:1034400068F590E036E0239F800D911D1124682FD0
:10345000677023E0969587952A95E1F7FC01EE0FBA
:10346000FF1FE80FF91FE558FE4F40E050E080E0F5
:10347000219130E0062E02C0369527950A94E2F796
:1034800021703327042E01C0220F0A94EAF7822B01
:103490004F5F5F4F4330510559F7089580E008951D
:1034A000292F983088F5863078F590E036E0239F14
:1034B000800D911D1124282F277051E001C0550F58
:1034C0002A95EAF723E0969587952A95E1F7FC017E
:1034D000EE0FFF1FE80FF91FE558FE4F20E030E028
:1034E00070E04081CB01022E02C0969587950A9428
:1034F000E2F78170819584278523842781932F5F4C
:103500003F4F2330310569F708958093610410928D
:10351000A4020E945228089521E030E001C0220F49
:103520008A95EAF720958091610482230E94851A8A
:10353000089521E030E001C0220F8A95EAF78091DA
:103540006104822B0E94851A08958093FF021092D5
:10355000A4020E945228089592959F70963079F0A7
:1035600010F4925001C09A50923068F4803F69F094
:1035700018F4883E40F409C0843F29F406C0883E10
:1035800020F0813F11F080E0089581E008951092CD
:103590009D0186E0EFE8F1E0DF011D928A95E9F7F1
:1035A0001092A4020E9452280895882321F00E94BC
:1035B000D4270E9452280895882339F09091A402BC
:1035C000892B8093A4020E9452280895882321F019
:1035D0000E94DB270E9452280895882321F00E9430
:1035E000E2270E9452280895882309F44AC0682FD0
:1035F0008CEF860F813A28F48DE891E00E94AC1997
:103600000CC080E2860F883058F4677081E001C0FA
:10361000880F6A95EAF70E94DB270E9452280895D6
:103620008BE5860F8330A0F480917701909178012B
:10363000892B39F11092780110927701E0915A01AB
:10364000F0915B013097E9F00680F781E02D16C01C
:10365000685A6731B0F48091790190917A01892B91
:1036600081F010927A0110927901E0915A01F09163
:103670005B01309731F00084F185E02D80E090E02F
:1036800009950895CF93882359F1C82F8CEF8C0F9B
:10369000813A78F4EFE8F1E08191C817C9F081E050
:1036A000E539F807C9F76C2F8DE891E00E94B91948
:1036B0000CC080E28C0F883098F4C77081E001C0A4
:1036C000880FCA95EAF70E94E2270E94522808C094
:1036D0006C2F8DE891E00E94AC190E945228E3CF34
:1036E000CF9108951F93CF93DF93182F893329F437
:1036F000C091DE01D091DF0104C0C091DC01D09106
:10370000DD01812F0E94421B209741F08FE99FE04D
:103710000197F1F700C000002197F6CF812F0E949A
:10372000F41ADF91CF911F910895CF93DF93EC01AD
:103730004B815C81698188810E943C2181110EC08E
:103740008E819F81009719F00E94B22504C0888164
:1037500099810E940F1A0E94AC1A01C080E0DF918B
:10376000CF910895A5E1B0E0E8EBFBE10C948C303B
:103770008C0185E0F801DE01519601900D928A9549
:10378000E1F7D8015C9011966C9011971296EC902D
:1037900012971396CD90DC90149760E087EA92E040
:1037A0000E945B2987EAA82E82E0B82E8090AA02A8
:1037B0009090AB02A4016091A8028091A7020E94A0
:1037C0003C21F82E8111DBC14090A902F601E819D5
:1037D000F9094F0160E0442009F45FC1C5010E946E
:1037E0005B29B5010E942D2D7090AC0288169906B8
:1037F00008F00BC14091AA025091AB02B090A70211
:10380000A090A802872D807F6A2D09F08EC08B2D95
:103810000E943C21811124C0D80111968C911197EE
:103820008A111EC08C918B111BC02091AD0230916A
:10383000AE0216968D919C9117972817390781F43F
:10384000E1100EC0872D8F7080618093AC0287EAF3
:1038500092E00E9409038091AC02F8018583ABC11C
:10386000A601662D852D0E943C21D82E811103C012
:1038700081E08E2502C080E090E080FF17C04E2DD1
:10388000662D852D0E94A828882381F08091DB0178
:1038900080FF0CC087EA92E00E940903E7EAF2E0A9
:1038A00088E0DF011D928A95E9F785C1D11003C038
:1038B00081E08E2502C080E090E0B82FB170CB2E61
:1038C00080FF2AC04E2D662D852D0E94A828D82E57
:1038D000811122C0598A6A8A89899A890E940F1A9D
:1038E000292F22952F70223018F0243078F405C04B
:1038F0009F7049F0811107C00DC09F7021F0F80141
:103900009581907F39F0805E883020F0C8010E9458
:103910000903DC2CFD2C4FC1EE2009F44BC1809132
:10392000AC0281608093AC0246C18B2D0E943C2189
:10393000811124C0D80111968C9111978A111EC053
:103940008C918B111BC02091AD023091AE02169666
:103950008D919C9117972817390781F4E1100EC0BB
:1039600015967C92C8010E94090388E0F801A7EA35
:10397000B2E001900D928A95E1F76FC0C8010E94F4
:10398000951B8823E1F1EE20D1F12091AC02822F2A
:1039900082958F7090E00297A4F08091A702909199
:1039A000A8029A8789871B86DD86CC862E87809120
:1039B000AD029091AE02988B8F87CE0109960E943E
:1039C000090388E0F801A7EAB2E001900D928A9518
:1039D000E1F70E94D22816C0F090A7029090A802AA
:1039E0004091AA025091AB02692D8F2D0E943C217B
:1039F000882399F0C8010E94951B811130C0C8012D
:103A00000E940903FF24F394D6C0872D807F21F7FD
:103A100087EA92E00E940903ACC0D80111968C910C
:103A200011978911E7CF8C918F11E4CF2091AD02CE
:103A30003091AE0216968D919C91179728173907F1
:103A4000C9F6E110D7CF15967C92C8010E940903F0
:103A500088E0F50111928A95E9F7F42CACC0EE20CC
:103A600071F22091AC02822F82958F7090E00297C4
:103A70000CF4A7CF8091A7029091A8029A83898322
:103A80001B82DD82CC822E838091AD029091AE02AA
:103A900098878F83CE01019692CF87EA92E00E94A9
:103AA0005B2967EA72E00E942D2D8816990608F0BE
:103AB00060C0FE2CEE2009F4A2CFE090A702D090C7
:103AC000A8024091AA025091AB026D2D8E2D0E944A
:103AD0003C21811140C0D80111968C9111978D1114
:103AE0003AC08C918E1137C02091AD023091AE0258
:103AF00016968D919C9117972817390761F580913B
:103B0000DB0182FD1FC08091AC0280FD1BC082954D
:103B10008F70482F50E041155105A1F02091AC0263
:103B200015962C9315974F30510549F08F5F982FBC
:103B30009295907F822F8F70892B15968C93C80158
:103B40000E94090388E0F801A7EAB2E001900D9213
:103B50008A95E1F730C0C8010E94951B811131CFD1
:103B60008091AC0281608093AC02C8010E9409037D
:103B700022C088E0F50111928A95E9F71CC0EE2079
:103B800009F43DCFC8010E94951BF82E882309F443
:103B900036CF88E0F801A7EAB2E001900D928A954D
:103BA000E1F78091A7029091A8020E940F1A0E944B
:103BB000D22801C0F12C8F2D6596E0E10C94A8303D
:103BC000A0E1B0E0E6EEFDE10C94963029873A875B
:103BD0004B875C876D877E878F87988BCE01099690
:103BE0000E94B21B81114AC088E0FE013996DE01B5
:103BF000119601900D928A95E1F7E984FA840C857B
:103C00001D85A8016F2D8E2D0E943C21811136C08B
:103C1000A091AF02B0E0CD01019687709927209165
:103C2000F00230E08217930781F1E982FA821D8366
:103C30000C8393E0AA0FBB1F9A95E1F7A055BD4FE7
:103C400098E0FE01319601900D929A95E1F78093EC
:103C5000AF020E94C82812C028E0829FC001112430
:103C600080559D4F0E94B21B8823E1F08091F002A5
:103C700090E00196877099278093F0028091F0027E
:103C80009091AF028913E8CF0DC00E94C71A10921D
:103C9000AF021092F002E7EAF2E088E0DF011D9245
:103CA0008A95E9F76096E6E00C94B230A0E0B0E0C7
:103CB000ECE5FEE10C9492304430510508F46CC000
:103CC00040919B0141FBCC24C0F8D12CCC0CDD1CD5
:103CD00042FB882780F9C82FE0E0DE2FCC0FDD1FE4
:103CE000CC0FDD1FCC2ADD2A40FBEE24E0F8F12CBE
:103CF000EC28FD2843FBAA27A0F9B0E023E0AA0F97
:103D0000BB1F2A95E1F7EA2AFB2A44FBEE27E0F9DC
:103D1000F0E034E0EE0FFF1F3A95E1F7EE29FF29BE
:103D200045FB222720F930E055E0220F331F5A953A
:103D3000E1F72E2B3F2B46FB882780F990E0E6E049
:103D4000880F991FEA95E1F7822B932B47FB4427B5
:103D500040F950E05695542F442757954795842BAA
:103D6000952B20919C01322F3170132F00E0082BEE
:103D7000192B26952170B22EBB0CA12C0A291B29C8
:103D8000012E000C220B330BFB01008311832283D5
:103D9000338380E090E002C08FEF9FEFCDB7DEB7B6
:103DA000EAE00C94AE308091BE019091BF019093F7
:103DB0000F0180930E010895CF92DF92EF92FF9250
:103DC0004430510508F46FC0FB01C080D180E2800F
:103DD000F3800E94C71A80919B01C0FA80F9B70155
:103DE000A601769567955795479540FB81F9B701F0
:103DF000A60122E076956795579547952A95D1F7C4
:103E000040FB82F9B701A60133E076956795579597
:103E100047953A95D1F740FB83F9B701A601E4E055
:103E20007695679557954795EA95D1F740FB84F9C4
:103E3000B701A601F5E07695679557954795FA95F0
:103E4000D1F740FB85F9B701A601A6E07695679505
:103E500057954795AA95D1F740FB86F9B701A6017A
:103E6000B7E07695679557954795BA95D1F740FB9A
:103E700087F980939B0180919C01D0FA80F999E0A9
:103E8000F694E794D794C7949A95D1F7C0FA81F93C
:103E900080939C0180919B0190919C010E942B2713
:103EA00080E090E002C08FEF9FEFFF90EF90DF90F7
:103EB000CF9008959C01CA01F90132964591549121
:103EC0008417950750F0CB01F901349665917491F0
:103ED0000E94CE3080E090E008958FEF9FEF08952C
:103EE0000F931F93CF93DF930EEB11E0C7EAD1E05E
:103EF000CE010E943330F80161918F01681719F0EB
:103F0000CE010E9441302196CB3CF1E0DF0781F7E2
:103F1000DF91CF911F910F910895DA019C012E5FDF
:103F20003F4FF90145915491F90125913491A21720
:103F3000B30758F0FC013496859194910E94CE30DD
:103F40000E94701F80E090E008958FEF9FEF08952A
:103F5000CF93DF93EC01EA85FB85309719F06C85F0
:103F60007D8509958B810E94D4278C810E94DB2757
:103F70000E94522886E0FE0111928A95E9F7DF91AE
:103F8000CF910895CF93DF93EC018D8181FD15C012
:103F900082608D839091A4028B81892B8093A402EF
:103FA0008C810E94E2270E945228E885F98530978B
:103FB00021F06C857D85CE0109951092A6021092A4
:103FC000A5028D8180FD03C0CE010E94A81FDF9154
:103FD000CF910895A0E0B0E0E0EFFFE10C949230C3
:103FE0007C015B01C42FD22FFC0182818823B1F0B8
:103FF0004093A3020E9477199093A2028093A1029A
:1040000080E28C0F883008F052C0C77081E001C098
:10401000880FCA95EAF70E94ED1A49C08091A30261
:10402000481335C08091A1029091A2020E945C19B0
:104030006C01B701C5010E942D2DC816D90638F5AF
:1040400010E21D0FCD17B9F080E28C0F883040F4DC
:10405000C77081E001C0880FCA95EAF70E94E61A8E
:10406000183010F581E09D2F977001C0880F9A9548
:10407000EAF70E94ED1A802F0E94721B1830B8F4E4
:10408000D77081E001C0880FDA95EAF70AC080E2B4
:104090008C0F883060F4C77081E001C0880FCA952A
:1040A000EAF70E94E61A03C0802F0E94721BCDB768
:1040B000DEB7EAE00C94AE30CF93DF93EC01409191
:1040C00096025091970260919802709199022FB7D1
:1040D000F89480915D0190915E01A0915F01B09193
:1040E00060012FBF841B950BA60BB70B843F91403B
:1040F000A105B105A8F48091960290919702A09134
:104100009802B09199028093920290939302A093A7
:104110009402B093950284EF91E0A0E0B0E00EC06D
:104120000E946B19609392027093930280939402A1
:104130009093950282E390E0A0E0B0E080938E023D
:1041400090938F02A0939002B0939102D0939E021D
:10415000C0939D02DF91CF910895FF920F931F931B
:10416000CF93DF9300919F021091A00201151105DA
:1041700009F45CC010929E0210929D0210929A0265
:1041800010929B02D80116966D917C9117979B0116
:104190003A9521153F4108F4707EC62FD1E0611198
:1041A00001C0D0E0F82ED8011996ED91FC911A9734
:1041B000309739F01B966D917C911C9780E00995A2
:1041C000D823DD2379F08CEF8C0F813A30F46C2FFB
:1041D0008DE891E00E94AC1905C00E9452288C2FF6
:1041E0000E94F41AE0919F02F091A0024081518157
:1041F000FF2071F0808584FD0BC080919C02882394
:1042000039F091E09A0121503109203B3D4508F0F9
:1042100090E090FF03C0CA010E945C200E945228D7
:104220001092A00210929F0210929C02C801CDB77A
:10423000DEB7E5E00C94B330FC0184818623C1F441
:1042400092819923B9F08085692383FF04C081E0BE
:10425000611111C00DC0892F8F7092959F70982B9E
:10426000862F8F7062956F70682B81E0961719F01A
:1042700080E0089581E00895452B41F06F3F41F4BF
:1042800091E08F3F09F090E0892F03C081E001C0E9
:1042900080E081700895BC0140918A0280918B0278
:1042A000942F981729F1292F30E0F901EE0FFF1F05
:1042B000EE57FD4F0190F081E02DE617F70799F4D6
:1042C00087E0869FF001879FF00D1124E65BFD4F8C
:1042D00081E0848394130CC02F5F3F4F23703327FA
:1042E00020938A0208952F5F3F4F922F9370D9CF6A
:1042F0000895EF92FF920F931F93CF93DF938091D6
:10430000E901882309F440C00091E8018CE0F82E0F
:104310008091E9010817A0F5EE24E394E00EE09205
:10432000E80110E0F09EE001F19ED00D1124C6518D
:10433000DE4F4B815C81698188810E943C21811123
:104340001DC08E819F81892B21F4888599850196D6
:1043500051F4288139814A815B816C817D818E8114
:104360009F810E94E01DF09EF001F19EF00D11244E
:10437000E651FE4F148213821092A4020E2DC8CF74
:104380001092E9011092E801CDB7DEB7E6E00C9497
:10439000B2301092E7011092E601EAE4F2E0858182
:1043A000811102C014821682379682E0E238F80743
:1043B000B1F7089510928D0210928C0210921101A3
:1043C00080918B0280938A020E94C9210E947921E8
:1043D0000895A0E0B0E0EFEEF1E20C948B30C091D4
:1043E0008A0297E0892E01E010E02CE0322E3EEFA9
:1043F000932E4424439480918B02C81709F479C00A
:10440000D0E0FE01EE0FFF1FEE57FD4F808191813E
:10441000889ED001899EB00D1124A65BBD4F1496D5
:104420002C911497211162C05090E901EAEEF1E05D
:1044300020E030E0712C5D01251508F055C0E284C4
:10444000F384D501CD90DC906FEF7FEF612C462D8A
:1044500050E0DA01AA0FBB1FAC0DBD1D0D90BC9141
:10446000A02D109731F0EA16FB0609F4BA01639407
:10447000EECF6F3FBFEF7B0799F1D80102C0AA0FC3
:10448000BB1F6A95E2F77A2AB801062C02C0660FB4
:10449000771F0A94E2F7AB0141505109672D70E094
:1044A00046175707D9F4329EF001339EF00D1124C0
:1044B000E651FE4F889ED001899EB00D1124A65B67
:1044C000BD4F12962D913C9113973783268390828E
:1044D00091829187808715964C9206C01482138230
:1044E0002F5F3F4F3C96A8CF0E944B212196C3706F
:1044F00082CF0E9479210E94C921CDB7DEB7E1E1C8
:104500000C94A73080911001877F8093100182E086
:104510000E94D4278091100184FF06C08F7E809373
:10452000100182E00E94E2278091100185FF06C001
:104530008F7D8093100180E20E94E2270E94522822
:104540000895662329F02091A40222602093A402FA
:104550009C013056211540E2340720F0305E2115D1
:10456000304108F499270E94062C0895009741F0E5
:10457000EFE9FFE03197F1F700C000000197F6CFB7
:104580000895A0E0B0E0E7ECF2E20C9492305C0118
:104590007B01C42E89018091100182FF8DC0C091E2
:1045A000E401D091E501CA15DB0521F0A114B104A5
:1045B00009F082C0809110018B7F8093100181FDF2
:1045C00011C08091E2019091E301A701481B590BB2
:1045D00081E020910E0130910F014217530718F42A
:1045E00080E001C081E08170D82E80911001D0FA66
:1045F00081F980931001FE01FF2784E0F695E7958D
:104600008A95E1F79E012F703327EE0FFF1FE256C8
:10461000FE4F81E090E002C0880F991F2A95E2F7D3
:10462000DD2029F020813181822B932B06C08095DB
:10463000909520813181822393239183808380917F
:104640009D0181FF08C0809110018061809310015D
:1046500082E00E94DB2780919D0185FF08C0809148
:10466000100180628093100180E20E94DB27A80184
:104670006D2DCE010E94A122CC2031F08091D90174
:1046800085FF02C086FF36C08091DC019091DD017C
:104690000E94B6228091E4019091E5019C01305680
:1046A000211540E2340720F0305E2115304108F436
:1046B00099270E94EC2B18C095013327C50190560D
:1046C000811540E2940720F0905E8115904110F42E
:1046D000C90101C0C5010E94EC2B8091E4019091B9
:1046E000E501A816B90611F40E948222F092E301B6
:1046F000E092E201CDB7DEB7EAE00C94AE300F9362
:104700001F93CF93DF930EEB11E0C7EAD1E0CE0108
:104710000E943330F80181938F012196CB3CF1E068
:10472000DF07A9F7C0E0D0E0FE01E256FB4F85911C
:104730009491009711F0FC0109952C96C039D10590
:1047400099F7DF91CF911F910F910895EEEBF1E072
:10475000128E138E8FEA90E09183808385E0848FA0
:1047600028E833E13383228322E330E0378B268B42
:1047700028EC30E0318F208F158E178E168E20E5B5
:1047800030E031A320A382A30E94701F0E94C71AA9
:1047900010929C0110929B01ECE9F1E08081846011
:1047A000808380919B0190919C010E942B270E9405
:1047B0007F230895CF93DF93CBEBD2E060E0CE016F
:1047C0000E9441302196C11584E0D807B9F7DF91E6
:1047D000CF9108952091990130919A01232BA1F452
:1047E000703F39F4603F81F4809197019091980176
:1047F0000895843048F4783038F4663028F4462F31
:10480000672F0E94472C089580E090E00895AEE164
:10481000B0E0EDE0F4E20C948E30A0909501B09001
:10482000960181E090E09093960180939501612C30
:10483000C12CD12C712CE12CF12C00E010E04701AF
:104840008C0C9D1CF801EE0FFF1FE80DF91DEC5EAE
:10485000FC4F25913491402F672D862D0E94202CEE
:104860000F5F1F4F0630110569F78CE0E80EF11C51
:104870007394E8E07E12E1CFF0E6CF0ED11C639492
:1048800084E06812D7CF0E94A6231A8219821C8264
:104890001B821E821D8218861F8288EC90E09A87F8
:1048A00089870BEC11E04AE050E0B801CE01019697
:1048B0000E946530065F1F4F0B31E2E01E0799F73B
:1048C0007E01FBE0EF0EF11C8AE0F70111928A9560
:1048D000E9F74AE050E0B801C7010E946530065F81
:1048E0001F4F0B36F2E01F07A1F77E0185E1E80EAE
:1048F000F11C8AE0F70111928A95E9F78FEF9FEF9B
:104900009A8F898F87E08E8F4AE050E0B801C70107
:104910000E946530065F1F4F0B3BF2E01F07A1F7B7
:10492000B0929601A09295016E96EEE00C94AA309A
:10493000883080F49B01982F8AE0989FB001112461
:1049400065537E4F4AE050E0C9010E94233080E069
:1049500090E008958FEF9FEF089580E00895909183
:104960009B0192FF0DC0282F2871283019F4877FF2
:10497000846006C0282F2471243011F48B7F886056
:1049800093FF0DC0282F2871283119F4877E846188
:1049900006C0282F2471243111F48B7E8861209168
:1049A0009C0120FF0DC0382F3871383019F4877FF3
:1049B000816006C0382F3171313011F48E7F8860EC
:1049C00021FF0DC0282F2871283119F4877E8161BD
:1049D00006C0282F2171213111F48E7E886194FD4B
:1049E000877E0895F894E82FE295EF70F0E031A10A
:1049F000282F2F7081E090E001C0880F2A95EAF7F8
:104A0000982F9095932391A392A1892B82A37894B8
:104A10000895A8E0B0E0EFE0F5E20C949130AE012B
:104A20004F5F5F4F7A0188E0FA0111928A95E9F7AA
:104A30000AE111E06A01AA24A394B12CF801808153
:104A40008F3F09F441C0F894E82FE295EF70F0E051
:104A500021A18F70A50102C0440F551F8A95E2F76E
:104A6000CA01922F982B91A392A18095892382A3AA
:104A7000789400C0E2E2F1E0912C31E021912F3FE7
:104A800089F0A22FA295AF70B0E090968C9190E043
:104A90002F7002C0959587952A95E2F780FD02C098
:104AA000832F01C080E0982A330F51E0E832F507E8
:104AB00029F7F80180818F3F11F00E94F224F0EA7B
:104AC000FA95F1F7F60190820F5F1F4FFFEFCF1AB3
:104AD000DF0A41E00232140709F0B0CF48E050E0AD
:104AE000B70180E391E00E94C130892B89F088E012
:104AF000F701A0E3B1E001900D928A95E1F781E022
:104B0000809302030E94771990930103809300031E
:104B100080910203811102C080E020C080910003D7
:104B2000909101030E945C190597B0F348E050E0B2
:104B300060E371E082E591E00E94C130892B59F079
:104B400088E0E0E3F1E0A2E5B1E001900D928A9502
:104B5000E1F781E001C080E0109202032896EBE0CB
:104B60000C94AD30CF93DF938238910569F1B0F4A6
:104B70008133910509F477C048F48932910509F42D
:104B800069C08A32910509F473C077C085339105F5
:104B900009F45BC089339105B9F06FC0833E91057C
:104BA00091F138F4803E9105D1F0823E910531F1CA
:104BB00064C0863E9105D9F1873E9105E9F1843EB6
:104BC000910509F05AC028C020919B0120FD2CC1FD
:104BD00021FD2AC120919C0123FD32C14EC080914C
:104BE0009B0180FD1BC180919C0180FF1DC18091B4
:104BF0009B0184FD10C183EE90E02AC180919B014E
:104C000082FF0FC1F4CF80919B0182FD0AC1809188
:104C10009C0180FD09C1EBCF80919C0181FF0AC1FD
:104C200080919B0184FDF7C087EE90E011C18091D7
:104C30009B0183FFFCC0F4CF80919B0183FDF7C0F3
:104C400080919C0181FDF6C0EBCF80919B0185FD99
:104C5000F7C0F3C080919B0185FDEFC080919C015E
:104C600083FFEEC0DBC080919B0186FDECC0EEC0EF
:104C700080919B0186FDEAC0E6C0811523E592077D
:104C8000A8F5811532E5930708F092C0811540E23E
:104C90009407D0F4811561E0960708F0D9C0853AF1
:104CA000910550F48430910508F0D2C0019709F0C5
:104CB000B2C081E090E0CCC09C01205E3109283078
:104CC000310508F0A8C0C4C0811571E5970708F048
:104CD0006AC0811520E5920708F04FC0811530E4C5
:104CE000930708F498C09F70906AB2C0EC018115D8
:104CF00046E59407F0F4811565E5960708F071C064
:104D0000811574E5970708F067C09C01237033276D
:104D100081E090E002C0880F991F2A95E2F7C695BE
:104D2000C69520E2C29FE00111248C2B9D2B9A682E
:104D30008FC0C1158AE5D80778F4C11529E5D207D7
:104D400008F057C0C11538E5D30708F464C09C2F9C
:104D50008827806F906A7CC0CE0190568115904262
:104D600008F059C08D2F8F710E94AF24282F2F710A
:104D7000CE0199279062922B6BC0482F4F704695B9
:104D8000469560E2469FA0011124837021E030E047
:104D9000B90102C0660F771F8A95E2F7CB019D68C3
:104DA000842B952B55C0982F8827816F906A50C00F
:104DB000AC014370552721E030E002C0220F331FC1
:104DC0004A95E2F78695869570E2879FC001112487
:104DD000822B932B9C683CC0982F8827846F906A05
:104DE00037C00E94AF248F7190E0982F882790627F
:104DF0002FC08C2F8F700E94AF2494E0D695C7955A
:104E00009A95E1F7CF70D0E0DC2FCC27D069BE01B6
:104E1000682BCB011DC080E090E01AC089E390E0D0
:104E200017C082EE90E014C080EE90E011C086EED4
:104E300090E00EC084EE90E00BC085E390E008C0E7
:104E400089E290E005C08AE290E002C081E390E050
:104E5000DF91CF910895CF93C92F682F84E090E020
:104E60000E9441306C2F82E290E00E944130CF914D
:104E70000895CF9384E090E00E943330C82F82E2FF
:104E800090E00E9433302C2F30E0A901582BCA014A
:104E9000CF91089568EE7EEF80E090E00E945F3051
:104EA00060E082E090E00E94413060E083E090E0CA
:104EB0000E9441301092FF0260E084E090E00E9486
:104EC000413064E082E290E00E94413060E085E0A1
:104ED00090E00E94413060E086E090E00E94413026
:104EE0006FEF87E090E00E94413040E050E0BA016F
:104EF00088E090E00E94533060E08DE090E00E94F6
:104F0000413040E050E0BA0188E190E00E94533027
:104F100060E087E190E00E94413040E050E0BA015B
:104F20008CE190E00E94533060E070E080E290E01D
:104F30000E945F3040E050E0BA0188E190E00E94BA
:104F4000533080E00E94CA2E0E94E92E40E050E0DB
:104F5000BA018FE090E00E94533040E050E0BA0187
:104F600083E190E00E94533008958091FE028823EF
:104F700031F01092FE021092FD021092FC02089590
:104F8000CF9390919C0192FF0DC09091FE029817D3
:104F900049F0C82F0E9477199093FD028093FC027C
:104FA000C093FE02CF91089580959091A402892329
:104FB0008093A4020895809590919D018923809308
:104FC0009D01089590919D01892B80939D010895E5
:104FD0001092F3021092F2021092F10208952091C1
:104FE000F302809582238093F302982F977099F4AF
:104FF00030E0482F082E000C550B2417350759F0C8
:1050000090919C0192FF07C08595859585950E949A
:105010008C1A0E94E827089590919C0192FB222708
:1050200020F9281769F080FB92F990939C018091F8
:105030009B0190919C010E942B2782E00E94EF2708
:10504000089590919C0192FF10C098E0899F900173
:105050001124262B2093F3020E94991A0E9477199B
:105060009093F2028093F10208950E94991A089594
:105070008091C0019091C101892B89F00E9477191C
:105080002091FC023091FD02AC01421B530B81E0E8
:105090002091C0013091C1014217530708F480E00C
:1050A0008170089590919D018091A402892B809335
:1050B0008D018091FE02882301F18091C0019091C1
:1050C000C101892B29F00E94382881110E94B5273F
:1050D00090918D018091FE02892B80938D01EFE8E4
:1050E000F1E097E080E0915029F021912223D9F35B
:1050F0008F5FF9CF81110E94B52780919A02809528
:1051000090918D01892390919B02892B80938D0131
:1051100048E050E064EF72E08DE891E00E94C13019
:10512000892BA9F088E0EDE8F1E0A4EFB2E001906E
:105130000D928A95E1F7E0915A01F0915B01309769
:1051400031F00280F381E02D8DE891E0099508951A
:105150002091F0029091AF022917B1F030E0F901EF
:1051600053E0EE0FFF1F5A95E1F7E055FD4F5181D7
:10517000561306C05081581303C05281541306C001
:105180002F5F3F4F2770E8CF80E0089581E00895BA
:105190008091F0029091AF02891719F08F5F8770AC
:1051A000FBCF0895A0E0B0E0E8EDF8E20C94943075
:1051B0008091AC0282958F7009F055C08091A90250
:1051C000882309F450C0C091F0028091AF02C81743
:1051D00009F449C0F090A702E090A802C090AA028A
:1051E000D090AB02A6016E2D8F2D0E943C21D0E005
:1051F000811136C08E0183E0000F111F8A95E1F7FF
:10520000F801E055FD4F81818E112AC080818F11F8
:1052100027C08281811124C0E380F480EC18FD084E
:1052200060E087EA92E00E945B2967EA72E00E94F0
:105230002D2DE816F906A0F48091AC028F708061E4
:105240008093AC02F801EB54FD4F80818F70806138
:10525000808387EA92E00E9409030E94C82803C065
:105260002196C770B2CFCDB7DEB7E8E00C94B0306E
:10527000A5E0B0E0EEE3F9E20C94993049835A835B
:1052800089819A81662359F0222349F00E94E0190E
:10529000182F682F89819A810E94501A03C00E949A
:1052A0001C1A182F69817A81812F0E94EA23259682
:1052B000E3E00C94B530FC0186819781009741F4BE
:1052C000262F408151816281738184810E94382917
:1052D0000895AAE1B0E0EFE6F9E20C948A30942F49
:1052E000498B252F5A8B6B8B7C8B8D8B4C895D89E1
:1052F000622F892F0E943C21811109C080912E01CB
:1053000090912F01019690932F0180932E018B890C
:1053100081111092A4028E01075F1F4F88E0F801EF
:1053200011928A95E9F785E0FE017196D801019006
:105330000D928A95E1F780919C0182FF28C08091AF
:10534000C0019091C101892B11F10E947719209120
:10535000F1023091F202821B930B2091C001309137
:10536000C1018217930740F08091F30282FB9927D5
:1053700090F981E0892701C080E080FF03C082E0CE
:105380000E94EF270E94382881110E94B5274C8582
:105390005D856A8589850E943C218111CCC161E0CF
:1053A000C8010E945B296C01873FFCE59F0739F427
:1053B0008B858823A9F081E080931101BCC1883FCF
:1053C0009C4531F48B85882359F00E94DA21B3C1C2
:1053D00089EFC8168CE5D80619F48B85811111C0A8
:1053E0000AE412E0512CA12CB12C66246394712C98
:1053F00033243394FE013196FF8BEE8BF7E02F2E92
:105400004DC0809111018823B1F2DFCFC616D706B7
:1054100009F097019F5F7901292F30E0F901EE0F24
:10542000FF1FE40FF51F608171816115710571F730
:10543000FFEFEF16FF0609F432C1F8016481611134
:1054400035C020911101822F81704B84F801358184
:105450002681442009F4CAC0882309F4C7C080907B
:10546000D4019090D501332321F1930102C0220F82
:10547000331F9A95E2F721503109F801868190E0B7
:105480002817390751F15428FFEFAF1ABF0A095FF7
:105490001F4F28E0A216B10409F403C1F8014081AE
:1054A0005181EE24EA94FE2C90E0B6CF20E030E06B
:1054B000CACFA3010E2C01C0440F0A94EAF7242B93
:1054C00026832091E6013091E7012815390568F619
:1054D0009092E7018092E601C8CF80918C02909172
:1054E0008D02009731F00E945C198816990608F425
:1054F0001FC180918A02F0918B02F88FE0E0F0E00A
:10550000288D821709F460C0282F30E0F901EE0FD2
:10551000FF1FEE57FD4F80809180289CF001299C51
:10552000F00D1124E65BFD4FF080E18050E090E04B
:1055300040E0EF2DFE2DE40FF11DE40FF11DA081E1
:10554000B1811097D1F0F801F081F98FF801F18164
:10555000FA8F90E0E98DFA8DE90FF11DE90FF11D49
:10556000608171816115710531F0A617B70709F4E3
:1055700051E09F5FEFCF4F5FDCCF5523F9F09417D9
:10558000C8F0289CF001299CF00D1124E65BFD4F2A
:105590003097B1F03482E017F10709F474CF90919D
:1055A0008A0289130DC0C9010196837099278093DF
:1055B0008A0206C00115110509F0BAC0E0E0F0E06A
:1055C000C901019683709CCFE017F10709F45BCF06
:1055D00090E0FC01EE0FFF1FEE57FD4FB182A0825D
:1055E00001968370992780938B024DCF311112C0A1
:1055F000A30102C0440F551F9A95E2F7415051098B
:1056000030E042175307E9F56623E1F1C5010E9436
:105610004B2137C0822F90E09C0121503109282373
:1056200039230E2C02C0959587950A94E2F7232B17
:1056300031F580FF24C0F80182819381892BD9F054
:1056400088E0EE89FF8911928A95E9F78EEF8983C8
:105650008A830E9477198160582F9D838C83F8017B
:10566000828193818F83988729813A814B816D81D3
:105670007E810E94E01DF801158281E003C08170E7
:1056800001C080E093010E2C01C0220F0A94EAF7BA
:105690002095F801968129232683482EF4CE412CAB
:1056A000F2CE8B85882381F1552071F10E94771904
:1056B00090938D0280938C028091E901883008F0EC
:1056C00044C091E0980F9093E90198E0FE0139966B
:1056D000DE01119601900D929A95E1F7ECE08E9F14
:1056E000C001112486519E4F28E0FE013196DC0155
:1056F00001900D922A95E1F72FEF3FEFFC013187E2
:105700002087D386C28621C090918A0280918B0225
:10571000981719F00E94E92108C00E94792110927F
:105720008D0210928C020E94C921552021F00DC0DB
:10573000F8013482A8CE29853A854B855C856D8534
:105740007E858F8598890E94E01D6A96E2E10C941F
:10575000A6300E94C71A2FEF84E39CE021508040BE
:105760009040E1F700C000009AE088E10FB6F8949D
:10577000A895809360000FBE90936000FFCF9C01BE
:105780003A9521153F4130F5BC0166277270AC0196
:10579000442754709C012227387094FF0FC090FF5B
:1057A00002C080E101C080E0672B09F08062452BD8
:1057B00009F08064232B79F080680895892F817027
:1057C000672B09F08260452B09F08460232B19F0C8
:1057D0008860089580E00895CF93DF93EC010E94E4
:1057E000F41ACE01805E9109089710F0209731F4E9
:1057F000CE010E94BF2B0E94E61A05C0CE010E9476
:10580000BF2B0E94D51ADF91CF910895CF93DF93DC
:10581000EC01805E9109089710F0209731F4CE01D9
:105820000E94BF2B0E94ED1A05C0CE010E94BF2B23
:105830000E94DC1A8C2F0E94421BDF91CF910895A9
:105840001F93CF93DF93962F8430E8F46830D8F419
:105850004630C8F4632F122FC42FD0E0CC0FDD1FC9
:105860002CE0929FC00DD11D112490E6899FC00DA0
:10587000D11D1124CE0187960E944130612FCE01A7
:1058800088960E944130DF91CF911F9108950F9328
:105890001F93CF93DF93843008F56830F8F44630D7
:1058A000E8F4C42FD0E0CC0FDD1F2CE0629FC00DC8
:1058B000D11D112430E6839FC00DD11D1124CE01CE
:1058C00087960E94333090E0182F0027CE018896EB
:1058D0000E9433309801282BC90102C080E090E07B
:1058E000DF91CF911F910F910895AAE0B0E0EBE70F
:1058F000FCE20C94903008EE13E086EDC82E83E0B5
:10590000D82E9BE6E92E92E0F92E2FE0922E35ED6F
:10591000A32E33E0B32E88248394F60101931193D0
:105920006F014AE050E0B701CE0101960E9423309A
:10593000F801892D11928A95E9F789819A81F801F8
:10594000918380838F8182838D8183838885848303
:10595000898585838B819C819783868310868A8540
:1059600087FF03C01686158603C0F801B686A58694
:1059700080FF02C0F801808681FF04C0F801908595
:105980009260908782FF04C0F801908594609087B0
:1059900083FF04C0F80190859860908784FF04C05D
:1059A000F80190859061908785FF04C0F80180859B
:1059B00080628087015F1F4FFAE0EF0EF11C8BEBD6
:1059C000E81682E0F80609F0A8CF2A96ECE00C94DD
:1059D000AC30AAE0B0E0EFEEFCE20C94943080E54D
:1059E000E5E8F3E0DF011D928A95E9F788E3EAE450
:1059F000F2E0DF011D928A95E9F785E8C82E83E081
:105A0000D82E7F010BE112E0F701D182C0824AE07B
:105A100050E0B801CE0101960E94233088E0FE01DB
:105A20003196D60101900D928A95E1F789859A8584
:105A3000D70113969C938E931297BAE0CB0ED11C8C
:105A4000E7E0EE0EF11C065F1F4F0B36F2E01F077A
:105A5000D9F62A96E8E00C94B030AAE0B0E0E3E38F
:105A6000FDE20C949A309C0137552F3F310509F027
:105A700050F4BE016F5F7F4F0E949824892B19F468
:105A800089859A8504C08091D6019091D7012A9684
:105A9000E2E00C94B630E5E1F3E080E090E064E110
:105AA0007EE24BE35EE228E83DE27783668351873E
:105AB0004087338722879587848701963E96883072
:105AC000910599F70895A5E0B0E0E9E6FDE20C94B0
:105AD0009A309093980180939701811520E2920764
